:100000000C945F010C9487010C9487010C94870178
:100010000C9487010C9487010C9487010C94870140
:100020000C9487010C9487010C9487010C94870130
:100030000C9487010C9487010C9487010C94870120
:100040000C94A02B0C9487010C94102C0C94EA2B8C
:100050000C9487010C9487010C9487010C94870100
:100060000C9487010C948701537563636573732146
:1000700020495020616472657373206973200065A4
:1000800072726F72004F627461696E696E672049A7
:10009000502061647265737320666F726D204448EE
:1000A00043502E2E2E006572726F72202D204D51FE
:1000B0005454206C69627261727920636F646520A8
:1000C00069733A20004D51545420636F6E6E65631E
:1000D00074656420746F20736572766572200043C6
:1000E0006F6E6E656374696E67204D5154542E2E89
:1000F0002E0045746865726E6574206661696C6572
:100100006420746F207265636F7665722C20736B48
:10011000697070696E67207265636F6E656374697C
:100120006E67206F66204D5154542E2E2E00506560
:1001300072696F646963204D51545420636F6E6E11
:10014000656374696F6E20636865636B202D204F53
:100150004B2E00436865636B2045746865726E655D
:100160007420636F6E6E656374696F6E202D204F0F
:100170004B2E00446574656374656420457468653E
:10018000726E657420636F6D6D756E6963617469FD
:100190006F6E206661696C75726520696E206D6195
:1001A000696E206C6F6F702E0044657465637465B2
:1001B00064204D51545420636F6D6D756E69636199
:1001C00074696F6E206661696C75726520696E2056
:1001D0006D61696E206C6F6F702E00206368616EB8
:1001E00067656420737461746520746F3A200053EE
:1001F00074617274696E672041726475696E6F20F4
:100200006761746520636F6E74726F6C206F7665C2
:100210007220486F6D65417373697374616E742EDB
:100220002E2E0044726F7070696E672C206F6E65A1
:100230002072656C617920697320616C72656164FC
:10024000792072756E6E696E672100202D2000493D
:100250006E636F6D696E67204D5154543A200000F3
:10026000000000240027002A0000000000250028CC
:10027000002B0000000000230026002900040404D5
:10028000040404040402020202020203030303033F
:10029000030102040810204080010204081020011C
:1002A00002040810200000000800020100000304FE
:1002B00007000000000000000000422CDC2F112489
:1002C0001FBECFEFD8E0DEBFCDBF12E0A0E0B1E0AF
:1002D000E4E0F7E602C005900D92AE38B107D9F719
:1002E00025E0AEE8B2E001C01D92A836B207E1F702
:1002F00011E0CEE5D1E004C02197FE010E94373124
:10030000CD35D107C9F70E94142E0C9475330C9487
:1003100000001092100382E090E090930D03809310
:100320000C0308958CBD9DBD089520E3FC0120833E
:100330003296862F82958F706F706A3030F4605DD0
:100340006293682F8111F5CF0895695CF9CF8F9280
:100350009F92AF92BF92CF92DF92EF92FF920F9354
:100360001F93CF93DF9300D0CDB7DEB74C015B0175
:10037000D12CC12CCA14DB0418F090E080E02DC011
:10038000E0913D05F0913E058091390590913A0547
:1003900009951616170618061906ECF41A82198222
:1003A000E0913505F09136057B018C019E012F5FB0
:1003B0003F4FA5014C195D09B4016C0D7D1D809165
:1003C0003105909132050995009739F489819A8118
:1003D000C80ED91ECFCF8CEF9FEF0F900F90DF91FB
:1003E000CF911F910F91FF90EF90DF90CF90BF9032
:1003F000AF909F908F900895CF93DF93BC01809131
:10040000290590912A050E94A701EC01892B89F406
:10041000409120055091210560912205709123059E
:10042000E0913B05F0913C058091370590913805AE
:100430000995CE01DF91CF910895109242058091E8
:10044000F4049091F504DC01ED91FC910488F589A8
:10045000E02D09948F929F92AF92BF92CF92DF923C
:10046000EF92FF920F931F93CF93DF9300D0CDB7FE
:10047000DEB79C01260F371F4091270550912805B4
:100480004217530708F44CC05B014C01D12CC12C1E
:10049000CA14DB0418F090E080E033C0E0913D0521
:1004A000F0913E058091390590913A0509957B01BF
:1004B0008C011E141F04100611060CF51A821982F5
:1004C00060912B0570912C05C4018C0D9D1D680F4A
:1004D000791FE0913305F09134059E012F5F3F4F66
:1004E000A5014C195D09809131059091320509955E
:1004F000009739F489819A81C80ED91EC9CF8CEF33
:100500009FEF0F900F90DF91CF911F910F91FF9070
:10051000EF90DF90CF90BF90AF909F908F90089515
:100520008FEF9FEFEECF8091F4049091F504009748
:1005300011F480E00895DC01ED91FC910688F789C3
:10054000E02D09958130A9F7809142050895FC01BD
:10055000818D928D08950895833081F028F4813043
:1005600099F08230A9F008958730A9F08830C9F059
:100570008430B1F4809180008F7D03C08091800031
:100580008F7780938000089584B58F7784BD089518
:1005900084B58F7DFBCF8091B0008F778093B000C2
:1005A00008958091B0008F7DF9CFCF93DF93282FEE
:1005B00030E0F901EB55FD4F8491F901EF56FD4F05
:1005C000D491F901E358FD4FC491CC23A1F08111DE
:1005D0000E94AC02EC2FF0E0EE0FFF1FED58FD4F34
:1005E000A591B491EC91ED2381E090E009F480E0D5
:1005F000DF91CF91089580E090E0FACF1F93CF93E1
:10060000DF93282F30E0F901EB55FD4F8491F9017C
:10061000EF56FD4FD491F901E358FD4FC491CC231F
:10062000A9F0162F81110E94AC02EC2FF0E0EE0F22
:10063000FF1FE759FD4FA591B4918FB7F894EC9146
:10064000111108C0D095DE23DC938FBFDF91CF91CD
:100650001F910895DE2BF8CFCF93DF9390E0FC013C
:10066000EF56FD4F249183589D4FFC0184918823C0
:10067000D1F090E0880F991FFC01E15AFD4FA59140
:10068000B491FC01E759FD4FC591D491623071F4EA
:100690009FB7F8943C91822F809583238C93E881B7
:1006A0002E2B28839FBFDF91CF9108958FB7F894A9
:1006B000EC912E2B2C938FBFF6CF3FB7F8948091FF
:1006C0002D0390912E03A0912F03B091300326B5F6
:1006D000A89B05C02F3F19F00196A11DB11D3FBF7A
:1006E000BA2FA92F982F8827BC01CD01620F711D49
:1006F000811D911D42E0660F771F881F991F4A9543
:10070000D1F708958F929F92AF92BF92CF92DF92CE
:10071000EF92FF924B015C010E945D036B017C0133
:100720000E945D036C197D098E099F09683E734024
:1007300081059105A8F321E0821A9108A108B1086A
:1007400088EEC80E83E0D81EE11CF11C81149104D0
:10075000A104B10429F7FF90EF90DF90CF90BF90F4
:10076000AF909F908F9008952FB7F89460912903D0
:1007700070912A0380912B0390912C032FBF089531
:100780000895AF92BF92CF92DF92EF92FF920F93B4
:100790001F93CF93DF936C017B018B01040F151F17
:1007A000EB015E01AE18BF08C017D10759F069917F
:1007B000D601ED91FC910190F081E02DC6010995E3
:1007C000892B79F7C501DF91CF911F910F91FF9090
:1007D000EF90DF90CF90BF90AF900895FC01538DC4
:1007E000448D252F30E0842F90E0821B930B54170B
:1007F00010F0CF96089501970895FC01918D828D98
:10080000981761F0A28DAE0FBF2FB11D5D968C9130
:10081000928D9F5F9F73928F90E008958FEF9FEF6F
:100820000895FC01918D828D981731F0828DE80F2B
:10083000F11D858D90E008958FEF9FEF0895FC01E5
:10084000918D228D892F90E0805C9F4F821B9109B2
:100850008F73992708958EE493E00E941F0421E08E
:10086000892B09F420E0822F089580E090E0892B05
:1008700029F00E942B0481110C9400000895FC01C2
:10088000A48DA80FB92FB11DA35ABF4F2C91848DF1
:1008900090E001968F739927848FA689B7892C934E
:1008A000A089B1898C91837080648C93938D848DA1
:1008B000981306C00288F389E02D80818F7D8083A4
:1008C0000895EF92FF920F931F93CF93DF93EC0164
:1008D00081E0888F9B8D8C8D98131AC0E889F989E7
:1008E000808185FF15C09FB7F894EE89FF896083EA
:1008F000E889F98980818370806480839FBF81E06B
:1009000090E0DF91CF911F910F91FF90EF900895AC
:10091000F62E0B8D10E00F5F1F4F0F731127E02E87
:100920008C8D8E110CC00FB607FCFACFE889F989BF
:10093000808185FFF5CFCE010E943F04F1CFEB8D82
:10094000EC0FFD2FF11DE35AFF4FF0829FB7F89493
:100950000B8FEA89FB8980818062CFCF0F931F9331
:10096000CF93DF938C01D0E0C0E0F801EC0FFD1FC6
:100970006491662341F08EE493E00E946104892B28
:1009800011F02196F2CFCE01DF91CF911F910F91FF
:100990000895CF93DF93EC01888D8823B9F0AA895D
:1009A000BB89E889F9898C9185FD03C0808186FD2A
:1009B0000DC00FB607FCF7CF8C9185FFF2CF808179
:1009C00085FFEDCFCE010E943F04E9CFDF91CF91AB
:1009D0000895CF92DF92EF92FF920F931F93CF93E0
:1009E000DF93FC012081222309F44EC0EC018185B4
:1009F0009285019709F045C00E94B4030B891C89B8
:100A00002D893E896B017C01C01AD10AE20AF30AE2
:100A100009811A812B813C81C016D106E206F306BA
:100A200098F16B8B7C8B8D8B9E8B8B859C85AD859C
:100A3000BE854D815E816F817885481B590B6A0B9D
:100A40007B0B413051056105710549F48F3FFFEF84
:100A50009F07AF07BF0719F01882188A1F860196F3
:100A6000A11DB11D8B879C87AD87BE87E989FA8957
:100A7000DF91CF911F910F91FF90EF90DF90CF907A
:100A800009940E945D03BACFDF91CF911F910F911E
:100A9000FF90EF90DF90CF900895CF93DF93FC010C
:100AA00021893289232BA9F0EC0181859285019758
:100AB00099F40E94B4036B8B7C8B8D8B9E8B81E0B1
:100AC00088831B861C861D861E8681E090E0988B9D
:100AD0008F87DF91CF9108950E945D03ECCF0F9334
:100AE0001F93CF93DF93EC01B0E0A0E0E881F981A0
:100AF0008D010F5F1F4FCB018E1B9F0B801791073E
:100B000058F1822F8F7797E056954795379527951F
:100B10009A95D1F7211531054105510509F08068F5
:100B2000EA0FFB1F8083211531054105510569F44A
:100B300088819981800F911F9983888390E080E05C
:100B4000DF91CF911F910F910895D80104301105C5
:100B500069F68EEF9FEFF4CF8FEF9FEFF1CFEF921B
:100B6000FF920F931F93CF93DF9300D0CDB7DEB7E3
:100B7000680F791FE4E0220F331FEA95E1F7681749
:100B80007907F9F07A018C01FC012193FA83E9835A
:100B900020E030E0A901CE0101960E946F05009788
:100BA00039F429813A81201B310BF70131832083ED
:100BB0000F900F90DF91CF911F910F91FF90EF90C9
:100BC00008958FEF9FEFF4CF4F925F926F927F92D5
:100BD0009F92AF92BF92CF92DF92EF92FF920F93CC
:100BE0001F93CF93DF936C018A01DA011D921D924E
:100BF0001D921C921397DC01ED91FC917B01EE1A82
:100C0000FF0A5F01D0E0C0E0412C512C3201439437
:100C10002196EC16FD06E0F1C530D105E1F1D501D4
:100C20009D905D01A92DAF77B0E0A30192010E94D4
:100C3000B530D8012D913D914D915C911397260FC0
:100C4000371F481F591F2D933D934D935C93139766
:100C500087E0440C551C661C771C8A95D1F797FCDD
:100C6000D7CFEC0FFD1FD601ED93FC9390E080E011
:100C7000DF91CF911F910F91FF90EF90DF90CF9078
:100C8000BF90AF909F907F906F905F904F9008952E
:100C90008FEF9FEFEDCF8EEF9FEFEACFFA01603835
:100CA00071058105910538F481E090E0918380839E
:100CB00090E080E00895611520E4720781059105B8
:100CC00018F482E090E0F2CF6F3F2FEF72072FE130
:100CD0008207910518F483E090E0E8CF6F3F7F4FE3
:100CE0008F4F9F4018F484E090E0E0CF1182108293
:100CF0008EEF9FEF0895FC01A081B181A617B70781
:100D000029F4DA011C928FEF9FEF08958C91DA019C
:100D10008C938081918101969183808390E080E023
:100D20000895FC01A081B1816A1B7B0B62307105C3
:100D300068F05C93A081B18111964C938081918180
:100D400002969183808390E080E008958FEF9FEF7B
:100D50000895AF92BF92CF92DF92EF92FF920F93DE
:100D60001F93CF93DF9300D0CDB7DEB77C01E60EA3
:100D7000F71EE1E0F0E02630310511F0F0E0E0E0B0
:100D8000EE0FFF1F74E0220F331F7A95E1F7E22B7D
:100D9000E816F90669F16A015C01DC01ED93BA839A
:100DA000A98322E030E040E050E0B701CE01019697
:100DB0000E946F05009779F4A801B701CE01019652
:100DC0000E949106009739F429813A812A193B093A
:100DD000F601318320830F900F90DF91CF911F9107
:100DE0000F91FF90EF90DF90CF90BF90AF9008955C
:100DF0008FEF9FEFF0CFCF93DF93DC01ED91FC916C
:100E000011976E1B7F0B6230710540F4EA01198265
:100E100018828FEF9FEFDF91CF910895208130E00E
:100E2000322F22279181290F311DEA01398328832E
:100E30003296ED93FC9390E080E0EDCFCF92DF927D
:100E4000EF92FF920F931F93CF93DF9300D000D0C8
:100E500000D01F92CDB7DEB76A0179019E838D83E2
:100E60008C01060F171F1F82AE01495F5F4FB8014B
:100E7000CE0105960E947B06009729F52F81207FE1
:100E800030E084E0359527958A95E1F787EF9FEF6D
:100E90002C153D05C1F4AE014F5F5F4FB801CE0187
:100EA00005960E94E405009771F489819A81AB81CF
:100EB000BC810297A105B105A9F4A701B801CE0133
:100EC00005960E94FB0627960FB6F894DEBF0FBE6C
:100ED000CDBFDF91CF911F910F91FF90EF90DF90E9
:100EE000CF90089588EF9FEFEECF2F923F924F92D1
:100EF0005F926F927F928F929F92AF92BF92CF92AA
:100F0000DF92EF92FF920F931F93CF93DF93CDB7B2
:100F1000DEB766970FB6F894DEBF0FBECDBF3C01BB
:100F20007E8B6D8B1A01F12CE12CF3011182108262
:100F300061E070E090E080E00E942A028C3FFFEFC9
:100F40009F0709F420C1009709F05AC060912B0552
:100F500070912C05F301118210827A8369836F5F8F
:100F60007F4FAE01485F5F4FCE0101960E947B0626
:100F7000009709F045C08885807F90E034E0959522
:100F800087953A95E1F7F301918380838930910544
:100F900079F04CF40297069758F0F3011182108211
:100FA00087EF9FEF2DC08B30910511F00D97A9F7BA
:100FB00019821A821B821C8210E000E02801FFEFD8
:100FC0004F1A5F0A61E070E0C2010E942A02009796
:100FD000B9F460912B0570912C056F5F7F4F798775
:100FE0006887640D751DAE014F5F5F4FCE01089697
:100FF0000E94E4058E3F2FEF9207D9F489EF9FEF0F
:1010000066960FB6F894DEBF0FBECDBFDF91CF91CD
:101010001F910F91FF90EF90DF90CF90BF90AF9016
:101020009F908F907F906F905F904F903F902F9008
:1010300008950097C9F469817A818B819C814B0165
:1010400020913F0521111AC0611571058105910597
:1010500009F091C089809A80FFEF8F1A9F0A8E0C49
:101060009F1C840C951C35C019821A821B821C821D
:1010700082018F3F980709F4A1CFC2CF98012E5F5C
:101080003F4F5B016C01A20EB31EC11CD11C20910D
:1010900027053091280550E040E02A153B054C0516
:1010A0005D0590F68114910489F5F3011182108297
:1010B000E0914005F0914105309759F08081918190
:1010C000A281B3810196A11DB11D80839183A2836A
:1010D000B383F30180819181009709F48BC185303E
:1010E000910509F43AC108F050C0039709F457C0BC
:1010F0002114310409F475C1F3018081918128160E
:10110000390609F07AC190E080E07ACFE0913D05A0
:10111000F0913E058091390590913A0509957B0142
:101120008C011E141F041006110614F540912705AA
:10113000509128058416950608F4A401198618868E
:1011400060912B0570912C05E0913305F0913405E9
:101150009E01285F3F4F809131059091320509959E
:10116000009709F04DCF88859985881A990A9ACFFA
:101170008CEF9FEF45CFC80102960E942A0200978C
:1011800009F468CF3DCF4701A4CF8630910509F41B
:101190000DC10D9709F0ACCF10922405A9CF809115
:1011A000270590912805E0902B05F0902C05FF86EF
:1011B000EE86E80EF91EAE01405F5F4FB701CE012B
:1011C0000E960E947B06009709F01ACF8889982F07
:1011D000907F903309F0E4CE982F91709B838670B6
:1011E00090E095958795813009F49AC0512C412C57
:1011F000823019F492E0492E512CAE01485F5F4FC6
:10120000B701CE010E960E94E405009709F0F8CED2
:10121000488559856A857B85423051056105710590
:1012200008F498C00E851F85E01AF10AC701FF0C6B
:10123000AA0BBB0B84179507A607B70708F4D7C0FE
:10124000040F151FAE01445F5F4FB801CE010E962B
:101250000E94FB06009709F0D3CE2C853D85211511
:10126000310509F061C01C8A1B8A3A8B298B411415
:10127000510409F469C0AE01445F5F4FB801CE016B
:101280000E960E94FB06009709F0BACE8E859F85C8
:10129000081B190B1F830E83012B09F058C01D82F8
:1012A0001C82E0912D05F0912E053097A1F0609100
:1012B0002F0570913005A42C5A824982BA80CB80C8
:1012C000DC80ED80FE800F8129893A894B895C8919
:1012D0008EE195E009954114510409F409CF24E009
:1012E00030E04A94452811F025E030E00C851D855A
:1012F0006091250570912605AE01485F5F4F809192
:10130000290590912A050E94A906009709F078CE38
:10131000888599850E94FC01009709F4E9CE70CE7A
:1013200044244394512C69CF8E859F85A801481B86
:10133000590B4217530708F45AC09C8B8B8B820FB2
:10134000931F9F878E8791CF1D861C869FCF9D837D
:101350008C83A7CF88EF9FEF53CE609127057091C4
:1013600028059E01285F3F4F45E050E080912B0506
:1013700090912C050E941E07009709F041CE088528
:101380001985609125057091260526E030E0AE01B3
:101390004F5F5F4F8091290590912A050E94A90611
:1013A000009709F02DCE89819A81B4CF60912705ED
:1013B000709128059E01285F3F4F46E050E08091E4
:1013C0002B0590912C050E941E07009709F018CE5E
:1013D00008851985609125057091260527E030E084
:1013E000D6CF8D899E89892B09F086CE8CCE8FEF42
:1013F0009FEF06CE21143104A1F3E0913D05F09159
:101400003E058091390590913A0509951616170603
:10141000180619060CF077CEED89FE89309721F079
:101420008E169F0608F06FCE74017FCDCF93DF93A9
:10143000E901DC018D919C91DC01ED91FC91028030
:10144000F381E02D099599838883892B29F090E019
:1014500080E0DF91CF9108958AEF9FEFFACF2F922E
:101460003F924F925F926F927F928F929F92AF9234
:10147000BF92CF92DF92EF92FF920F931F93CF9381
:10148000DF9300D000D0CDB7DEB79A8389836B019C
:101490005C834B831901270138010E94B4034B017F
:1014A0005C01D1011D921C92EB81FC81EF2B91F12B
:1014B0000E94B403681979098A099B0964157505A6
:1014C0008605970538F5A981BA818D919C91DC013B
:1014D000ED91FC910288F389E02D4B815C81B6018E
:1014E000099518161906A4F161E070E080E090E01B
:1014F0000E948203A981BA818D919C91DC01ED91BA
:10150000FC910688F789E02D09958111CDCF8BEFED
:101510009FEF07C0F10180819181892B51F190E00B
:1015200080E00F900F900F900F90DF91CF911F915F
:101530000F91FF90EF90DF90CF90BF90AF909F9072
:101540008F907F906F905F904F903F902F90089575
:10155000C80ED91ED1012D913C911197280F391F2A
:101560002D933C93EB81FC81E81BF90BFC83EB830F
:101570009BCF8CEF9FEFD5CFCF92DF92EF92FF9270
:101580000F931F93CF93DF93EC01E885F985309794
:1015900039F10995088119812A813B81601771070A
:1015A0008207930700F50095109520953095600F00
:1015B000711F821F931F0C811D812E813F81680145
:1015C0007901C61AD70AE80AF90AC701B601DF91FC
:1015D000CF911F910F91FF90EF90DF90CF900895E2
:1015E0000E94B403D7CF601B710B820B930BE3CF28
:1015F000CF93DF93EC014C835D836E837F83E8851B
:10160000F985309741F00995688379838A839B83B4
:10161000DF91CF9108950E94B403F6CFFC012081A1
:101620002EBD9B012150310941F051810DB407FEBF
:10163000FDCF4EB55EBD4193F5CF61507109860F68
:10164000971F0DB407FEFDCF2EB5FC012083089532
:10165000E091FC02F091FD0280819091FB02892BC8
:1016600080830895E091FC02F091FD0290818091C9
:10167000FB0280958923808308958EBD00000DB400
:1016800007FEFDCF8EB50895AF92BF92CF92DF9245
:10169000EF92FF920F931F93CF93DF93CDB7DEB7F7
:1016A00028970FB6F894DEBF0FBECDBF8C017B012B
:1016B0006A0180914D038333E1F45801A40EB51EF5
:1016C000A016B10609F46FC00E94320B80EF0E9491
:1016D0003D0B812F0E943D0B802F0E943D0B0F5F21
:1016E0001F4FF70181917F010E943D0B0E94280B43
:1016F000E7CF5B01A40EB51E8433C1F40E94320B08
:1017000019830A838D2D80688B83CC8264E070E01E
:10171000CE0101960E940E0BAE14BF0409F441C025
:10172000F70181917F010E943D0BF6CF0E94320BA1
:101730000F3F110509F028F419820A8384E08B8396
:101740000CC017FD17C019820A8333E01695079560
:101750003A95E1F7007E0C600B8386E0C816D10451
:10176000A0F5F701DE011496EA15FB0599F08191C9
:101770008D93FACFC80126E0969587952A95E1F7D3
:10178000807E19830A830115104C10F48461D7CF31
:101790008C61D5CFB6016D5F7F4FCE0101960E945F
:1017A0000E0B0E94280BC60128960FB6F894DEBFD8
:1017B0000FBECDBFDF91CF911F910F91FF90EF90A2
:1017C000DF90CF90BF90AF90089563E070E0CE01BE
:1017D00001960E940E0BF70181917F010E943D0B43
:1017E000AE14BF04C1F7DDCFCF93DF931F92CDB707
:1017F000DEB7898341E050E0BE016F5F7F4F90E02C
:1018000080E00E94440B0F90DF91CF91089590E00B
:1018100020914D03233339F40C96982F990F990F8B
:10182000990F80E008954896F8CFDA01E091FA0226
:10183000F0E0FE2FEE27E60FF71F90E0982F8827A5
:10184000A901BD018E0F9F1F0C94440BCF93DF9312
:1018500000D0CDB7DEB779836A8322E030E0AE01F5
:101860004F5F5F4F60E170E00E94150C0F900F908A
:10187000DF91CF910895CF93DF9300D0CDB7DEB73E
:1018800079836A8322E030E0AE014F5F5F4F64E00E
:1018900070E00E94150C0F900F90DF91CF9108958A
:1018A000CF93DF931F92CDB7DEB72091FA0230E0DD
:1018B000322F2227260F371F90E0982F8827498341
:1018C00041E050E0BE016F5F7F4F820F931F0E9487
:1018D000440B0F90DF91CF910895CF93DF931F9228
:1018E000CDB7DEB76983DC01ED91FC910280F38115
:1018F000E02D41E050E0BE016F5F7F4F09950F90F2
:10190000DF91CF910895FC019485FB0184859813A4
:1019100003C081E0943008F080E00895CF93DF9316
:101920001F92CDB7DEB76983DC01ED91FC91028097
:10193000F381E02D41E050E0BE016F5F7F4F0995DC
:101940000F90DF91CF91089544E050E0BC018FE00B
:1019500090E00C94440B0895FF920F931F93CF9344
:10196000DF93EB01FC01178A168A2A81211109C035
:101970002B81211106C02C81211103C02D8122232E
:1019800001F141155105E9F08A01FC01F08C80E577
:1019900091E00E949201AE014E5F5F4F24E030E083
:1019A0006CE070E08F2D0E94150CB8018F2D0E9405
:1019B000260C81E090E0DF91CF911F910F91FF9075
:1019C000089580E0F7CFFC01848595850895FC019A
:1019D0008489958908952EEA31E0FC0131832083C2
:1019E000FB014089518962897389FC0142835383D9
:1019F000648375830895DC01ED91FC91048CF58D71
:101A0000E02D099490E080E008950F931F93CF9309
:101A1000DF9300D0CDB7DEB70E949302882309F48C
:101A200051C08091F4049091F504DC01ED91FC919A
:101A30000084F185E02D09958C01181619060CF526
:101A40004091EF045091F0046091F1047091F20420
:101A5000E0913B05F0913C058091390590913A0564
:101A600009951A82198250E040E0B801CE01019632
:101A70000E947507009709F040C010924805109227
:101A800047054091EF045091F0046091F10470918A
:101A9000F204E0913B05F0913C058091390590916D
:101AA0003A0509958091200590912105A091220584
:101AB000B0912305892B8A2B8B2B59F41092480562
:101AC000109247050F900F90DF91CF911F910F91CA
:101AD0000895E0913D05F0913E0580913705909184
:101AE0003805099516161706180619063CF3809155
:101AF0002405882349F083EF9FEF90934805809356
:101B000047050E941D02DECF6091250570912605D4
:101B10002CE030E0AE014F5F5F4F8091290590913E
:101B20002A050E94AF05009741F789819A810E949A
:101B3000FC01009711F781E080932405BFCFFC01E1
:101B4000768765870895DC01ED91FC9102A0F3A1F1
:101B5000E02D099591E089270895862F089581E069
:101B60008627089521E0FC018485843008F020E078
:101B7000822F08950895E0910005F09101053097B6
:101B8000F1F087819085892B21F0818592850E94D3
:101B9000D931E0910005F091010580819181892B77
:101BA00021F0828193810E94D9318091000590912A
:101BB00001050E94D9311092010510920005089587
:101BC000FC0180819181009711F00C94D931089526
:101BD0000C94D931FB0101900020E9F73197AF0156
:101BE000461B570BDC01ED91FC910280F381E02D47
:101BF0000994CF93DF930E94AE04EC0160EB71E097
:101C00008EE493E00E94EA0D8C0F9D1FDF91CF912F
:101C100008958F929F92AF92BF92EF92FF920F938F
:101C20001F93CF93DF93CDB7DEB7A1970FB6F8948C
:101C3000DEBF0FBECDBF7C01FA01CB0119A222305D
:101C400008F42AE08E010F5D1F4F822E912CB12CDB
:101C5000A12CBF01A50194010E94FF30F901CA0126
:101C60006A300CF5605DD8016E938D01232B242B17
:101C7000252B79F790E080E0109721F0BD01C70196
:101C80000E94EA0DA1960FB6F894DEBF0FBECDBF3D
:101C9000DF91CF911F910F91FF90EF90BF90AF9088
:101CA0009F908F900895695CDECFCF92DF92EF9284
:101CB000FF92CF93DF936C01990FEE08FF08F7FEB8
:101CC00023C06DE28EE493E00E946104EC0144279E
:101CD0005527BA014C195D096E097F092AE08EE487
:101CE00093E00E94090EC80FD91F60EB71E08EE4EB
:101CF00093E00E94EA0D8C0F9D1FDF91CF91FF9022
:101D0000EF90DF90CF9008952AE0B701A6018EE40E
:101D100093E00E94090EEC01E8CF8F929F92AF9260
:101D2000BF92CF92DF92EF92FF920F931F93CF93C8
:101D3000DF937C01EB016C0182E0C80ED11C4701EE
:101D4000E5E08E0E911C10E000E0F60141916F017C
:101D500050E070E060E02AE0CE010E94090E5C01D4
:101D6000E881F9810190F081E02D6EE2CE010995C4
:101D70008A0D9B1D080F191FC814D90431F7F701EC
:101D8000458150E070E060E02AE0CE010E94090E3B
:101D9000800F911FDF91CF911F910F91FF90EF90D6
:101DA000DF90CF90BF90AF909F908F900895DC010F
:101DB00060E070E0CB01109709F40895FD010190F7
:101DC0000020E9F73197EA1BFB0BB9F3BF01CD0106
:101DD0000895EF92FF920F931F93CF93DF93EC013F
:101DE000198218821B821A821D821C82611571055C
:101DF000A9F17B01FB0101900020E9F731978F01E8
:101E0000061B170BB8016F5F7F4F90E080E00E94C8
:101E100062320097B9F0998388831B830A832C81EF
:101E20003D81232B11F4FC0110821D830C83B7012B
:101E300088819981DF91CF911F910F91FF90EF9051
:101E40000C945F3388819981009711F00E94D931F9
:101E5000198218821D821C821B821A82DF91CF9107
:101E60001F910F91FF90EF900895DC018EEA91E0B1
:101E70008D939D9384E0FB0101900D928A95E1F78B
:101E800008958F929F92AF92BF92CF92DF92EF927E
:101E9000FF920F931F93CF93DF93EC018B014901C6
:101EA0005A01A9010E9491067C01892BA1F4811499
:101EB000910489F088819981081B190B081519056F
:101EC000C0F0A401B5010E94463388819981880E33
:101ED000991E99828882C701DF91CF911F910F913E
:101EE000FF90EF90DF90CF90BF90AF909F908F903A
:101EF0000895EE24EA94FE2CEECF3F924F925F922B
:101F00006F927F928F929F92AF92BF92CF92DF9209
:101F1000EF92FF920F931F93CF93DF93CDB7DEB76E
:101F200062970FB6F894DEBF0FBECDBF8C010E9442
:101F30009302382E882309F450C1C090EF04D0904A
:101F4000F004E090F104F090F204C8010E94D70E72
:101F50006F87788B898B9A8BE0913B05F0913C05DC
:101F6000B701A6018091390590913A050995C09075
:101F70001E05D0901F052FEFC216D20609F086C0AD
:101F800081E090E090931F0580931E05CC24C394BC
:101F9000D12CE0902505F0902605809029059090A1
:101FA0002A059E828D82E80CF91C8F8598890396FC
:101FB000B0E0A0E02C013D01E2E04E0E511C611C9E
:101FC000711CAE014F5F5F4FC301B2010E944E060C
:101FD000029609F463C0ED81FE81EE15FF0509F458
:101FE00024C182E880838D819E8101969E838D83AA
:101FF000A3019201B701CE0105960E946F058C01E5
:10200000892B09F0DEC0A601B701CE0105960E941A
:1020100091068C01892B09F0D4C02F853889498914
:102020005A89B701CE0105960E94410F8C01892B78
:1020300009F0C7C0ED81FE81EE15FF0509F4F5C07A
:1020400010828D819E810196881999090E94FC0158
:102050008C01892B09F0B5C01C861B8649E050E035
:1020600070E060E0CE010B960E9475078C01892B11
:1020700009F0A7C08B859C850997F9F00FB6F894F5
:10208000DEBF0FBECDBF87EF9FEF0FC08FEFC81A27
:10209000D80AD0921F05C0921E057BCF0FB6F894C8
:1020A000DEBF0FBECDBF89EF9FEF909348058093B1
:1020B00047050E941D02312C90C080912705909108
:1020C0002805E0902B05F0902C05F886EF82E80EAD
:1020D000F91EAE01425F5F4FB701CE0107960E9425
:1020E0007B068C01892B09F06CC08E85807F80393E
:1020F00029F6AE014F5F5F4FB701CE0107960E94F0
:10210000E4058C01892B09F05CC089819A81AB813F
:10211000BC810397A105B10540F40FB6F894DEBF6A
:102120000FBECDBF88EF9FEFC0CFAE01475F5F4FBF
:10213000B701CE0107960E94FB068C01892B09F09E
:1021400040C0CE0105963C016C01912C812C82E0AF
:10215000482E512C89819A810297881699061CF085
:1021600090E080E05BC092E08916910439F1AE0105
:10217000435F5F4FB701CE0107960E947B06009731
:10218000F9F48D85813081F028F0823099F080E873
:1021900090E00CC0F601118210829FEF891A990A13
:1021A000E2E0CE0ED11CD6CF81E090E0F601918323
:1021B0008083F3CFF60151824082EFCF84EF9FEF0F
:1021C0008C010FB6F894DEBF0FBECDBF109348054B
:1021D00000934705012B09F06CCF832D62960FB653
:1021E000F894DEBF0FBECDBFDF91CF911F910F914D
:1021F000FF90EF90DF90CF90BF90AF909F908F9027
:102200007F906F905F904F903F900895F3012191E0
:1022100031913F012038310529F001968815990543
:10222000A9F7CFCF05EF1FEFCCCF0FEF1FEFC9CF2F
:102230002F923F924F925F926F927F928F929F92D6
:10224000AF92BF92CF92DF92EF92FF920F931F93C4
:10225000CF93DF9300D000D01F92CDB7DEB77C01C3
:102260006B01FB0101900020E9F731978F01061BFC
:10227000170B0E9493028D83882309F479C0809103
:10228000430590914405892B21F01092440510924A
:1022900043058090EF049090F004A090F104B0907A
:1022A000F204C7010E94D70E2B013C01E0913B05CF
:1022B000F0913C05B501A4018091390590913A0552
:1022C0000995E0902505F09026052090290530908D
:1022D0002A053C822B82E20CF31CC20102964801C3
:1022E000B12CA12C880E991EA11CB11CAE014F5F10
:1022F0005F4FC501B4010E944E06029679F1EB8151
:10230000FC81EE15FF0509F453C080E380838B81C7
:102310009C8101969C838B83A5019401B701CE011A
:1023200003960E946F05009789F4A3019201B701FB
:10233000CE0103960E94410F009741F48B819C814E
:10234000821993090E94FC01009759F09093480567
:10235000809347050E941D021D820AC089EF9FEFEE
:10236000F5CF01151105E9F41092480510924705C3
:102370008D810F900F900F900F900F90DF91CF9164
:102380001F910F91FF90EF90DF90CF90BF90AF9093
:102390009F908F907F906F905F904F903F902F9085
:1023A0000895B801C6010E94A7010097E9F2CECFB7
:1023B0008FEF9FEFCBCF60E085E00E94FE0260E0F0
:1023C00086E00E94FE0260E087E00E94FE0263EB6E
:1023D00071E085EB91E00E94181163EB71E08FEBE7
:1023E00091E00E94181163EB71E08DEC91E00C9488
:1023F00018116F927F928F929F92AF92BF92CF925D
:10240000DF92EF92FF920F931F93CF93DF93CDB79D
:10241000DEB7E6970FB6F894DEBF0FBECDBF82E100
:10242000E2E1F1E0DE01119601900D928A95E1F76B
:1024300082E1E4E2F1E0DE01539601900D928A958B
:10244000E1F78DED91E09EA38DA384EE91E098A736
:102450008FA38BEE91E09AA789A783EF91E09CA7C9
:102460008BA78BEF91E09EA78DA784E092E098ABBD
:102470008FA78CE092E09AAB89AB82E192E09CABB3
:102480008BAB89E192E09EAB8DAB6E0185E2C80E0D
:10249000D11CFE0131967E0193E1E90EF11C10E0A2
:1024A00000E0D60112964D01CF0102965C01D701E2
:1024B00012963D010130110521F480911003811124
:1024C0004DC080810E94D5029093F9028093F8025A
:1024D000D701ED91FC91208131818217930701F1A1
:1024E0009183808363EB71E0892B11F06BED71E0D8
:1024F000F601E080F180C7010E941811E114F10497
:1025000029F0B7018EE493E00E94EA0D8BED91E093
:102510000E94AE048091F8029091F9020E94550E3B
:102520000F5F1F4F6401F50173010930110509F0B8
:10253000B8CFE6960FB6F894DEBF0FBECDBFDF91E1
:10254000CF911F910F91FF90EF90DF90CF90BF90B0
:10255000AF909F908F907F906F9008956401F501E8
:102560007D0102E010E09DCF60E272E087E292E040
:102570000E94181182E00E94D5029093F902809384
:10258000F80263EB71E0892B11F06BED71E08DEDDA
:1025900091E00E94181180911003811111C083E015
:1025A0000E94D5029093F9028093F80263EB71E0E8
:1025B000892B11F06BED71E084EE91E00C94181111
:1025C00008954F925F926F927F928F929F92AF92F7
:1025D000BF92CF92DF92EF92FF920F931F93CF9310
:1025E000DF93CDB7DEB769970FB6F894DEBF0FBEA5
:1025F000CDBF4B0129013A01AB8ABC8ACD8ADE8A64
:10260000EF8AF88E098FCDB6DEB60E891F89A88CA9
:10261000B98CC90101962DB73EB7281B390B0FB6EF
:10262000F8943EBF0FBE2DBF8DB79EB701967C01BB
:10263000A201B3010E9446334E0C5F1CD2011C92D2
:102640000115110521F0F801EA0DFB1D1082D401DE
:102650001496ED91FC911597309739F19501A801E9
:10266000B7018D919C9109950FB6F894DEBE0FBE0F
:10267000CDBE0FB6F894DEBE0FBECDBE69960FB6C6
:10268000F894DEBF0FBECDBFDF91CF911F910F91A8
:10269000FF90EF90DF90CF90BF90AF909F908F9082
:1026A0007F906F905F904F900895F40182819381A5
:1026B000892BD1F2B701CE0107960E94E90E62EB99
:1026C00071E0CE010D960E94E90E0115110509F188
:1026D000B801CE0101960E94E90E8D859E85009776
:1026E00069F169817A816115710531F14F855889E8
:1026F0002D813E8142175307F8F00E945F338D8190
:102700009E819A8B898B1E821D82CE0101960E942A
:10271000E00DD4011296ED91FC91BE01635F7F4FF5
:10272000CE0107960995CE010D960E94E00DCE01CF
:1027300007960E94E00D98CF0E94D93189819A8135
:102740009E878D878B819C81988B8F878D819E81C1
:102750009A8B898B1A8219821C821B82D4CFAF92EA
:10276000BF92CF92DF92EF92FF920F931F93CF937E
:10277000DF9300D000D0CDB7DEB78C016B017A01BA
:1027800080914D038333E9F45B016801C40ED51ECB
:10279000C016D106A9F10E94320B8FE00E943D0BBA
:1027A000812F0E943D0B802F0E943D0B0F5F1F4F1A
:1027B00080E00E943D0BF50181935F010E94280B90
:1027C000E7CF843369F50E94320B19830A838F2D7A
:1027D0008F778B83EC8264E070E0CE0101960E94DB
:1027E0000E0BA70170E060E0C6010E944F33E114B8
:1027F000F10421F0B701C6010E940E0B0E94280BC4
:10280000C7010F900F900F900F90DF91CF911F9104
:102810000F91FF90EF90DF90CF90BF90AF90089511
:102820000E94320B0F3F110509F030F419820A8320
:102830001B8263E070E0D1CF17FD0BC019820A83C1
:1028400033E0169507953A95E1F7007E08600B8313
:10285000F0CFC80126E0969587952A95E1F7807E0E
:1028600019830A830115104C18F480618B83E1CF22
:102870008861FCCFCF93DF931F92CDB7DEB7209155
:10288000FA0230E0322F2227260F371F90E0982FD0
:10289000882741E050E0BE016F5F7F4F820F931F9A
:1028A0000E94AF1389810F90DF91CF910895CF934C
:1028B000C82F462F61E070E00E94500C61E070E08C
:1028C0008C2F0E943A148111F9CFCF910895CF93A4
:1028D000C82F80E591E00E94920168E070E08C2FA3
:1028E000CF910C945714CF93C82F80E591E00E94AC
:1028F000920160E170E08C2FCF910C945714CF932C
:10290000DF93EC01888D843020F40E94731484E0FE
:10291000888FDF91CF910895CF93C82F80E591E004
:102920000E94920163E070E08C2FCF910C943A14D6
:10293000CF93DF93EC018C858430D0F40E948C140B
:10294000843189F0882379F0883169F021E08C3175
:1029500059F4E881F9810084F185E02DCE010995D3
:1029600021E0892B09F420E0822FDF91CF91089597
:1029700080E0FBCFCF92DF92EF92FF92CF93DF9375
:10298000EC018C85843068F40E9467140E94B403C3
:102990006B017C018C850E948C14811109C084E03C
:1029A0008C87DF91CF91FF90EF90DF90CF900895CB
:1029B00061E070E080E090E00E9482030E94B40336
:1029C000AB01BC014C195D096E097F098D859E859F
:1029D000B0E0A0E0481759076A077B07D8F28C855A
:1029E0000E947314DCCFCF93FC01C08D80E591E091
:1029F0000E94920160E270E08C2F0E94571462E006
:102A000070E08C2F0E943A1484FD16C062E070E0E2
:102A10008C2F0E943A1483FF0AC048E162E070E004
:102A20008C2F0E94500C80E090E0CF91089580E5BB
:102A300091E00E949201E3CF40E162E070E08C2FD0
:102A40000E94500C81E0F0CFCF93DF931F92CDB75F
:102A5000DEB741E050E0BE016F5F7F4F90E080E065
:102A60000E94AF1389810F90DF91CF910895CF938A
:102A7000DF93C4E1D0E00E942415882361F061E077
:102A800070E080E090E00E9482032197A1F780E04F
:102A9000DF91CF91089581E0FBCF1F93CF93DF9318
:102AA0001F92CDB7DEB7182F80E591E00E9492010A
:102AB000812F0E94070C27E0129FF0011124EF5C88
:102AC000FC4F22813381377041E050E0BE016F5FDF
:102AD0007F4F820F931F0E94AF1389810F90DF9168
:102AE000CF911F910895FC01808D843040F4218D99
:102AF000328D232B21F00E944D1590E008958FEF29
:102B00009FEF0895CF93DF93FC012485243028F0B4
:102B10008FEF9FEFDF91CF910895EC010190F0814D
:102B2000E02D0084F185E02D0995892B89F38C85B2
:102B30000E944D1590E0EECFDA01E091FA02F0E04C
:102B4000FE2FEE27E60FF71F90E0982F8827A901A8
:102B5000BD018E0F9F1F0C94AF138F929F92AF9267
:102B6000BF92CF92DF92EF92FF921F93CF93DF93AA
:102B7000CDB7DEB72C970FB6F894DEBF0FBECDBF32
:102B800020914D0314E0222339F16B017C0180E593
:102B900091E00E9492015E0127E0A20EB11C450166
:102BA00010E063E070E0812F0E943A14F4018193F9
:102BB0004F01882349F11F5F143099F710E0F501A8
:102BC00081915F018D31D9F08831C9F08A5182300D
:102BD000B0F01F5F143099F7812F2C960FB6F89440
:102BE000DEBF0FBECDBFDF91CF911F91FF90EF9061
:102BF000DF90CF90BF90AF909F908F90089560E14D
:102C000070E0812F0E945714A12EB12C83EE93E027
:102C10000197F1F742E870E060E0812F0E94500CCC
:102C20004FEF62E070E0812F0E94500CB601C1149A
:102C3000D10491F4809106019091070101968115CC
:102C4000F0EC9F0708F45CC09093070180930601A5
:102C50006091060170910701812F0E943B0C86E074
:102C6000E6E3F1E0DE01119601900D928A95E1F71D
:102C7000F70183818F778C8384818D8385818E8317
:102C8000A7014E5F5F4F24E030E06CE070E0812FE1
:102C90000E94150CB601812F0E94260C26E030E020
:102CA000AE014F5F5F4F66E070E0812F0E94150C10
:102CB00061E070E0812F0E94571427E02A9DC00137
:102CC0002B9D900D11249C012F5C3C4F7901F90143
:102CD0001182108222E030E0AE01455F5F4F68E272
:102CE00070E0812F0E949C158B859C8598278927F1
:102CF0009827F701938382831682158214826CCF02
:102D000080E090ECA1CFCF92DF92EF92FF920F93F1
:102D10001F93CF93DF9300D000D000D0CDB7DEB7A4
:102D20008C016B017A01FC01808D843010F40E94CB
:102D300073148EEA91E09A838983F60182819381EC
:102D4000A481B5818B839C83AD83BE83B701CE0103
:102D500001960E94AD15F801808F8430A0F4F586AD
:102D6000E486128E118E81E026960FB6F894DEBFAF
:102D70000FBECDBFDF91CF911F910F91FF90EF90CC
:102D8000DF90CF90089580E0EFCFAF92BF92CF92C7
:102D9000DF92EF92FF920F931F93CF93DF9300D0B8
:102DA00000D000D0CDB7DEB7082F6B0180E591E0F1
:102DB0000E9492019E012F5F3F4F7901590110E05F
:102DC00063E070E0812F0E943A14F50181935F0166
:102DD000882341F11F5F143099F710E0F7018191CA
:102DE0007F018D31D1F08831C1F08A518230A8F055
:102DF0001F5F143099F7812F26960FB6F894DEBF27
:102E00000FBECDBFDF91CF911F910F91FF90EF903B
:102E1000DF90CF90BF90AF90089560E170E0812F78
:102E20000E945714E12EF12C83EE93E00197F1F705
:102E3000402F70E060E0812F0E94500C4FEF62E065
:102E400070E0812F0E94500CB601CD2889F480914A
:102E500006019091070101968115F0EC9F0798F10A
:102E6000909307018093060160910601709107011C
:102E7000812F0E943B0C61E070E0812F0E9457146B
:102E800027E02E9DC0012F9D900D11249C012F5CE9
:102E90003C4F7901F9011182108222E030E0AE014D
:102EA0004B5F5F4F68E270E0812F0E949C158D811F
:102EB0009E81982789279827F7019383828316821A
:102EC0001582148298CF80E090ECCACFCF92DF9227
:102ED000EF92FF921F93CF93DF93EC017B016A0186
:102EE0008C85843048F40E948C14882319F08C85DA
:102EF0000E94671484E08C87F70182819381A4810A
:102F0000B5810097A105B10551F490E080E0DF9113
:102F1000CF911F91FF90EF90DF90CF9008958F3F5A
:102F20009F4FAF4FBF4F89F380914D03811103C075
:102F300084E08C87EACF70E060E081E20E94C516F1
:102F4000182F8C87843008F780E591E00E94920169
:102F5000A7014E5F5F4F24E030E06CE070E0812F0E
:102F60000E94150CB601812F0E94260C64E070E0CF
:102F7000812F0E9457140E94B4036B017C018C8541
:102F80000E948C14873109F18C31F9F0882309F4FF
:102F9000BCCF0E94B403AB01BC014C195D096E09A2
:102FA0007F098D859E85B0E0A0E084179507A60770
:102FB000B70738F061E070E080E090E00E948203A3
:102FC000DECF8C850E947314B3CF81E090E09FCF59
:102FD0000F931F93CF93DF93EC018B01888D843087
:102FE00010F40E94731480914D03811107C094E086
:102FF000988FDF91CF911F910F910895B80182E0D2
:103000000E94C516888F843030F41D870C871A8E75
:10301000198E81E0EECF80E0ECCF7F928F929F926D
:10302000AF92BF92CF92DF92EF92FF920F931F93D6
:10303000CF93DF9300D0CDB7DEB7782E8B014A0156
:10304000590122E030E0AE014F5F5F4F64E270E073
:103050000E949C15E980FA80FE24EF24FE24E00EF5
:10306000F11E9701377040914D03072D10E0433357
:1030700009F042C0085F1F4F102F0027110F110FDA
:10308000110FC901800F911F4733C9F1A9014A0DE2
:103090005B1D4130584098F160E078E06B01C21A46
:1030A000D30AA601B4010E94440BA5014C195D0985
:1030B000B4016C0D7D1DC8010E94440BEA0CFB1C81
:1030C000F982EA8222E030E0AE014F5F5F4F64E2B6
:1030D00070E0872D0E94150C0F900F90DF91CF911B
:1030E0001F910F91FF90EF90DF90CF90BF90AF9026
:1030F0009F908F907F900895005F1F4FBDCFA501D7
:10310000B401DACFEF92FF921F93CF93DF9300D0F9
:10311000CDB7DEB7182F22E030E0AE014F5F5F4F32
:1031200060E270E00E949C15E980FA80FE24EF24A2
:10313000FE2422E030E0AE014F5F5F4F60E270E0BE
:10314000812F0E949C1589819A8198278927982729
:10315000E816F90689F487E0189FF0011124EF5C66
:10316000FC4FF582E482C7010F900F90DF91CF9161
:103170001F91FF90EF9008957C01DBCF1F93CF93B9
:10318000DF93182F80E591E00E949201812F0E9429
:103190008218EC0163E070E0812F0E943A148731BD
:1031A00021F08C3111F0D0E0C0E0CE01DF91CF9161
:1031B0001F910895CF93DF93EC018C85843060F4E8
:1031C0000E948C14873111F08C3131F48C850E946F
:1031D000BE188115984088F3DF91CF910895FC01C6
:1031E0008485843010F40C94BE1890E080E008953B
:1031F0009F92AF92BF92CF92DF92EF92FF920F9386
:103200001F93CF93DF938C015B01942EE52EFC017D
:10321000C688D788F08C80E591E00E9492018F2DBE
:103220000E948218C92DDE2D8C179D0708F4EC0131
:103230009E01A501B6018F2D0E940D18F801868907
:1032400097898C0F9D1F978B868BCE01DF91CF9135
:103250001F910F91FF90EF90DF90CF90BF90AF90B4
:103260009F9008958F929F92AF92BF92CF92DF92DC
:10327000EF92FF920F931F93CF936C015B018A0132
:10328000FC01C485C430F0F57A014130584018F093
:10329000E12C88E0F82E80E591E00E9492018C2FCD
:1032A0000E9482184C0163E070E08C2F0E943A1457
:1032B000873111F08C3149F58E149F0460F380E55D
:1032C00091E00E9492019701A50170E060E08C2FCF
:1032D0000E940D1860E270E08C2F0E94571462E08B
:1032E00070E08C2F0E943A1484FD17C063E070E0F8
:1032F0008C2F0E943A1481110BC081E090E0F601FE
:103300009383828310E000E010C0F12CE12CD7CF32
:1033100080E591E00E949201E2CF40E162E070E03E
:103320008C2F0E94500CEF2841F3C801CF911F91C0
:103330000F91FF90EF90DF90CF90BF90AF909F9054
:103340008F900895FF920F931F93CF93DF9300D038
:10335000CDB7DEB7F82E22E030E0AE014F5F5F4F11
:1033600066E270E00E949C1509811A8110270127EE
:10337000102722E030E0AE014F5F5F4F66E270E061
:103380008F2D0E949C1589819A81982789279827DB
:103390000817190749F4C8010F900F90DF91CF91DA
:1033A0001F910F91FF9008958C01E3CF1F93CF934E
:1033B000DF93182F87E0189FE0011124CF5CDC4FCA
:1033C00088819981009761F480E591E00E949201E3
:1033D000812F0E94A2192E81821B910999838883D3
:1033E000DF91CF911F910895FC018485843010F402
:1033F0000C94D61990E080E008954F925F927F92EE
:103400008F929F92AF92BF92CF92DF92EF92FF92F4
:103410000F931F93CF93DF9300D0CDB7DEB7782EF5
:103420006B014A01A82EB12C27E0829FC001112414
:10343000FC01EF5CFC4F7F010081118180E591E090
:103440000E9492010815190554F4872D0E94A219B3
:10345000F70126818C01021B1109118300830115DC
:10346000110529F563E070E0872D0E943A1484313C
:1034700059F0882349F001E010E08C3111F410E09C
:1034800000E0119501951109C8010F900F90DF918F
:10349000CF911F910F91FF90EF90DF90CF90BF9051
:1034A000AF909F908F907F905F904F90089580167F
:1034B00091060CF4840187E08A9DF0018B9DF00D4C
:1034C0001124EF5CFC4FE280F380C114D10451F170
:1034D0002701F7E05F22872D0E94070C840D951DC0
:1034E00020914D03273309F453C09801240D351D55
:1034F0002130384008F44CC020E038E049018418FD
:103500009508A401B6010E94AF132601480C591C6E
:103510006801C818D908872D0E94070CA601B201BE
:103520000E94AF13E00EF11E87E08A9DF0018B9D93
:10353000F00D1124EF5CFC4FF382E2822081318197
:10354000201B310B318320838681800F912F911DA9
:103550008A3F910510F4232BF1F487E08A9DF00156
:103560008B9DF00D1124EF5CFC4F1682F982EA82EC
:1035700022E030E0AE014F5F5F4F68E270E0872DE0
:103580000E94150C60E470E0872D0E9457147CCFD8
:10359000A801B601C5CF868377CFCF93DF93FC0117
:1035A000218D328D2115310529F48FEF9FEFDF91A9
:1035B000CF910895EC01808D4217530708F0A901BF
:1035C0000E94FD191816190684F7298D3A8D281BBB
:1035D000390B3A8F298FEBCF0F931F93CF93DF9344
:1035E0001F92CDB7DEB7FC01218D328D232B41F424
:1035F0008FEF9FEF0F90DF91CF911F910F91089563
:103600008C0141E050E0BE016F5F7F4FFC01808D77
:103610000E94FD19181619065CF7F801818D928D2C
:103620000197928F818F898190E0E4CF0F931F9350
:10363000CF93DF93CDB7DEB728970FB6F894DEBFF0
:103640000FBECDBF8C01D80159964D915C915A9710
:103650004115510551F0ED91FC91048CF58DE02D53
:1036600070E060E0C8010995EECFF801808D0E94FE
:10367000D619892BB1F148E050E0BE016F5F7F4F52
:10368000D80158968C910E94FD1918161906F4F469
:10369000D801509684E0FE01319601900D928A95F2
:1036A000E1F78D8190E0982F88272E81820F911D60
:1036B000F801958B848B8F81282F30E0322F2227C1
:1036C0008885820F932F911D928F818F28960FB638
:1036D000F894DEBF0FBECDBFDF91CF911F910F9148
:1036E000089590E080E0F2CF4F925F926F927F92C8
:1036F0008F929F92AF92BF92CF92DF92EF92FF9202
:103700000F931F93CF93DF93CDB7DEB763970FB6B9
:10371000F894DEBF0FBECDBF7C016B013A01FB0107
:1037200020E090E080E06AE03191332309F461C049
:1037300040ED430F4A3008F04DC0689FA001699FDB
:10374000500D1124CA01C097830F911D37FD9A9522
:103750008F3F910549F340F3F70142815381648122
:10376000758180911D0490911E04A0911F04B09159
:103770002004481759076A077B0709F40DC287011F
:10378000085F1F4F0E94B4036F7077277C5FC801EA
:103790000E94E817813009F004C28EEA91E09A8312
:1037A0008983F70182819381A481B5818B839C8376
:1037B000AD83BE8345E350E0BE016F5F7F4FC8011C
:1037C0000E94AC0C892BA9F5D12CC12CC8010E94F8
:1037D0007F1417C03E3209F0BFCF233009F4BCCFAD
:1037E000D301A20FB11D12968C932F5F90E080E061
:1037F0009BCF233009F0B0CFF3018583CC24C39451
:10380000D12CC60163960FB6F894DEBF0FBECDBFB4
:10381000DF91CF911F910F91FF90EF90DF90CF90AC
:10382000BF90AF909F908F907F906F905F904F90E0
:1038300008950E94B403F7017783668342E050E065
:10384000B7016A5F7F4FC8010E94F81881E090E0DD
:103850009A83898342E050E0BE016F5F7F4FC801C9
:103860000E94F81880E091E09A83898342E050E05A
:10387000BE016F5F7F4FC8010E94F8181A8219823B
:1038800042E050E0BE016F5F7F4FC8010E94F81810
:1038900042E050E0BE016F5F7F4FC8010E94F81800
:1038A00042E050E0BE016F5F7F4FC8010E94F818F0
:1038B0005601F6018081882301F16501F6018191AD
:1038C0002F01882311F08E32B1F446018A189B082B
:1038D0001814190474F48D8641E050E0BE01635F52
:1038E0007F4FC8010E94F818A401B501C8010E94C9
:1038F000F8185201DECF6201E1CF1D8641E050E0B1
:10390000BE01635F7F4FC8010E94F818C12CDD24FF
:10391000D394DA82C98242E050E0BE016F5F7F4FEC
:10392000C8010E94F818DA82C98242E050E0BE0164
:103930006F5F7F4FC8010E94F818C8010E94F314FE
:10394000892B09F441CFF3E0AF2EB12C230122E003
:10395000420E511CD4C0F7014281538164817581AC
:10396000808D918DA28DB38D481759076A077B070B
:1039700009F008C1848D958DC59709F003C181A117
:1039800092A15DEFC52EDD24DA940C970CF4ADC046
:103990004CE050E0BE016F5F7F4FC8010E94CD1A1E
:1039A0008B819C819827892798279A8B898BF7018F
:1039B0004681578129813A814217530709F0E7C0B0
:1039C00097FFE5C08F7092703BEFC32EDD24DA9431
:1039D000892B09F08AC06F80788476246724762446
:1039E0002AEFC22EDD24DA946114710409F47DC03B
:1039F000D12CC12C8D819E81982789279827C816A4
:103A0000D906F8F441E050E0BE01635F7F4FC80182
:103A10000E94CD1A4D85442331F050E070E060E003
:103A2000C8010E94CD1A8D858111ECCF44E050E091
:103A300070E060E0C8010E94CD1AFFEFCF1ADF0AE4
:103A4000D9CF912C812C41E050E0BE016D5E7F4FBB
:103A5000C8010E94CD1A4B89842F807C09F06CC06C
:103A6000442331F050E070E060E0C8010E94CD1ABC
:103A70008B898111E8CF42E050E0BE01615F7F4F4A
:103A8000C8010E94CD1A42E050E0BE01635F7F4F43
:103A9000C8010E94CD1A44E050E070E060E0C80127
:103AA0000E94CD1A42E050E0BE016F5E7F4FC80118
:103AB0000E94CD1A8F85988949895A89811591402C
:103AC00009F043C0CD84DE84DC24CD24DC2481E0F5
:103AD000C816D104D1F54115544009F04AC044E05C
:103AE00050E0B201C8010E94CD1A21E0A21AB1082B
:103AF00009F46CCEFFEFCF16DF0609F067CE0E9407
:103B0000B4033B014C01C8010E94161B181619068C
:103B10000CF421CF0E94B40366197709880999092A
:103B2000693873418105910548F562E370E080E0F2
:103B300090E00E948203E7CF41E050E070E060E057
:103B4000C8010E94CD1A1B8A93CF542745275427BA
:103B500070E060E0C8010E94CD1AFFEF8F1A9F0A43
:103B60006814790409F06FCF96EFC92EDD24DA943A
:103B7000BCCFE7EFCE2EDD24DA94B7CFCC24CA94A5
:103B8000DC2CB3CF6EEFC62EDD24DA94AECF4CEF33
:103B9000C42EDD24DA94A9CF8EEFC82EDD24DA946A
:103BA00030CED12CC12C2DCECF92DF92EF92FF924E
:103BB0000F931F93CF93DF93CDB7DEB7AF970FB6B9
:103BC000F894DEBF0FBECDBF7C016A010EEA11E0A2
:103BD0001A8309831C861B8688EE93E0A0E0B0E080
:103BE0008D879E87AF87B88B80E491E09A8789871D
:103BF000188F0F8B198E1A8E1B8E1C8E84E089A352
:103C00001BA70AA71CA61DA61EA61FA6809111040D
:103C100090911204A0911304B09114048EA39FA359
:103C2000A8A7B9A78B839C83AD83BE8318861F8208
:103C3000AE01465D5F4FCE0101960E94741B81303C
:103C40009105B1F4D701ED91FC910488F589E02D3F
:103C50001DA30CA38CA59DA5AEA5BFA58EA39FA358
:103C6000A8A7B9A7A601BE016C5D7F4FC701099542
:103C7000AF960FB6F894DEBF0FBECDBFDF91CF91E8
:103C80001F910F91FF90EF90DF90CF900895CF920A
:103C9000DF92EF92FF920F931F93CF93DF93CDB7F5
:103CA000DEB7AF970FB6F894DEBF0FBECDBF8C0165
:103CB0006B017A018EEA91E09A8389831B821C82D0
:103CC0001D821E821C861B8648EE53E060E070E079
:103CD0004D875E876F87788B20E431E03A872987AC
:103CE000988F8F8B198E1A8E1B8E1C8E24E029A321
:103CF0009BA78AA71CA61DA61EA61FA6D8011C96B8
:103D00008C91843060F40E948C14882321F0F80197
:103D100084850E94671484E0D8011C968C9380915E
:103D2000110490911204A0911304B09114048EA375
:103D30009FA3A8A7B9A78B839C83AD83BE83188656
:103D40001F82AE01465D5F4FB601CE0101960E9413
:103D5000741B0097C1F0D801ED91FC910684F785A2
:103D6000E02D8EEA91E09DA38CA38CA59DA5AEA528
:103D7000BFA58EA39FA3A8A7B9A7A701BE016C5D8D
:103D80007F4FC8010995AF960FB6F894DEBF0FBEFE
:103D9000CDBFDF91CF911F910F91FF90EF90DF90FA
:103DA000CF900895CF93DF931F92CDB7DEB741E058
:103DB00050E0BE016F5F7F4FFC0184850E94FD19BA
:103DC0001816190634F4898190E00F90DF91CF9195
:103DD00008958FEF9FEFF9CFFC018485843010F4B4
:103DE0000C94FD1990E080E008950F931F93CF93FA
:103DF000DF9300D0CDB7DEB7FC0124852430E0F49A
:103E00008C0180E591E00E94920122E030E0AE0159
:103E10004F5F5F4F60E170E0F80184850E949C1560
:103E200089819A819827892798270F900F90DF9191
:103E3000CF911F910F91089590E080E0F6CFEF921F
:103E4000FF920F931F93CF93DF9300D000D0CDB795
:103E5000DEB78C017B01FB0184858430A8F08EEAFB
:103E600091E0F8019183808312821382148215827B
:103E7000C8010F900F900F900F90DF91CF911F917D
:103E80000F91FF90EF90089580E591E00E949201DC
:103E900024E030E0AE014F5F5F4F6CE070E0F7016F
:103EA00084850E949C15BE016F5F7F4FC8010E94F0
:103EB000350FDECF0F931F93CF93DF9300D0CDB795
:103EC000DEB7FC0124852430E0F48C0180E591E02C
:103ED0000E94920122E030E0AE014F5F5F4F64E04C
:103EE00070E0F80184850E949C1589819A81982749
:103EF000892798270F900F90DF91CF911F910F91F5
:103F0000089590E080E0F6CF7F928F929F92AF92DB
:103F1000BF92CF92DF92EF92FF920F931F93CF93B6
:103F2000DF93CDB7DEB7A6970FB6F894DEBF0FBE0E
:103F3000CDBF8C01762E942E852E20E2A22ECE01AE
:103F400001967C01DC01EA2D1D92EA95E9F76801F2
:103F5000F3E4CF0ED11C8EEA91E09AA389A38FEFF0
:103F60008BA38CA38DA38EA343E450E0BE016F5DB1
:103F70007F4FC6010E94AC0C019609F4BFC081E0DE
:103F800089838A8386E0B82EBB821C82D80114966E
:103F90006D917D918D919C9117970E9430316D8329
:103FA0007E838F83988789869A8680E890E09C87B5
:103FB0008B874CE150E0B701C6010E94F818FE0162
:103FC00037968AE1DF011D928A95E9F74801B8E04A
:103FD0008B0E911CF401D70101900D92BA94E1F778
:103FE00040E150E0B701C6010E94F818F7011192B4
:103FF000AA94E9F796E0A92EB12C40E250E0B7016F
:10400000C6010E94F818F1E0AF1AB108B1F783E6D3
:10401000898392E89A8393E59B838C8385E38D83E0
:1040200081E08E837F829DE3988797E099878A87D6
:1040300086E0F401DE011B9601900D928A95E1F76E
:104040008CE0898B8A8B61E372E0CE0143960E94FB
:104050005F33D8011B966C91CE0149960E94950161
:10406000F8016485CE014B960E949501D8011D96FA
:104070006C91CE014D960E9495014EE150E0B70142
:10408000C6010E94F818B3E07B121EC082E3898348
:1040900084E08A83F80196859B8397859C83908929
:1040A0009D8391899E8396E39F838887828D8987EC
:1040B000838D8A87848D8B87858D8C874CE050E03B
:1040C000B701C6010E94F81887E3898386E08A83D6
:1040D00091E09B8393E09C838D838FE08E838AE3C2
:1040E0008F838BE388878FEF898749E050E0B701A2
:1040F000C6010E94F818C6010E94F314A6960FB6D6
:10410000F894DEBF0FBECDBFDF91CF911F910F910D
:10411000FF90EF90DF90CF90BF90AF909F908F90E7
:104120007F9008953F924F925F926F927F928F920D
:104130009F92AF92BF92CF92DF92EF92FF920F9336
:104140001F93CF93DF93CDB7DEB7EA970FB6F894FE
:10415000DEBF0FBECDBF7C012A013B0169010E9479
:10416000B4034B015C0187010D5B1F4FC8010E9426
:10417000161B181619069CF00E94B40368197909D9
:104180008A099B09461657066806790608F466C12F
:1041900062E370E080E090E00E948203E7CF42E2B9
:1041A00050E0BE016F5F7F4FC8010E94CD1A898128
:1041B0008230D1F0312C832DEA960FB6F894DEBF11
:1041C0000FBECDBFDF91CF911F910F91FF90EF9068
:1041D000DF90CF90BF90AF909F908F907F906F9027
:1041E0005F904F903F900895F801848995898334BA
:1041F000910501F76D817E818F8198850E94303114
:104200004B015C01F60180829182A282B38246E07A
:1042100050E0B701685F7F4FCE014D960E94393361
:10422000892B41F6F70180819181A281B3818816A3
:104230009906AA06BB0608F4BDCF84819581A681A4
:10424000B78188159905AA05BB0508F4B3CF8989FC
:104250009A89AB89BC8986879787A08BB18B4EECF6
:1042600050E070E060E0C8010E94CD1A312CC70117
:10427000829698AB8FA7F701B696FAABE9AB089692
:104280009CAB8BAB67019AE1C90ED11CBD96FEAB0E
:10429000EDABC701429698AF8FABFD97FAAFE9AF90
:1042A0004701FEE18F0E911CF801818D928D181649
:1042B00019060CF080CFC8010E94EC1A83339105D7
:1042C00009F4B2C014F58130910509F464C044F4D6
:1042D000892B51F3C8010E94EC1AAC01552775C017
:1042E0008330910509F462C00697A1F7C8010E94C6
:1042F000EC1AB82E44E050E0B401C8010E94CD1A77
:10430000EB2DE450FF0BAF0160C08A33910509F437
:104310005FC084F585339105B1F1C697D9F6C80120
:104320000E94EC1A5C01B601CE0189960E94350FFD
:104330008BA59CA5ADA5BEA5892B8A2B8B2BB1F097
:10434000EDA9FEA94080518062807380B601CE0144
:1043500083960E94350F8DA19EA1AFA1B8A5A5019E
:10436000481659066A067B0609F0B8CF44E050E0CB
:10437000B60118C08B33910509F440C08F3F9105F9
:1043800009F492CFA7CFC8010E94EC1AC8010E947D
:10439000EC1A382E89CFC8010E94EC1A44E050E094
:1043A0006FA978ADC8010E94CD1A7ECFC8010E94C6
:1043B000EC1AB82E44E050E069AD7AADC8010E9415
:1043C000CD1A8B2D8450990BAC0170E060E0EACFE0
:1043D000C8010E94EC1A44E050E069A97AA9C8011A
:1043E0000E94CD1AF70166A177A180A591A50E9430
:1043F000303166A377A380A791A756CFC8010E944A
:10440000EC1A44E050E06BA97CA9C8010E94CD1AC7
:10441000F70162A573A584A595A50E94303162A716
:1044200073A784A795A740CFC8010E94EC1A44E067
:1044300050E06FA578A9C8010E94CD1AF70162A1CA
:1044400073A184A195A10E94303162A373A384A3B8
:1044500095A366A777A780AB91AB26CF33243A9478
:10446000AACE2F923F924F925F926F927F928F923D
:104470009F92AF92BF92CF92DF92EF92FF920F93F3
:104480001F93CF93DF9300D000D000D0CDB7DEB71D
:104490008C010E943E302FEC37E040E050E00E945B
:1044A0009630DC01CB010196A11DB11DF80184837A
:1044B0009583A683B78380839183A283B3835801B6
:1044C000F3E4AF0EB11CC5010E947F1464E470E0F8
:1044D000C5010E94E817882309F445C10E94B4036E
:1044E0002B013C01480182E4880E911C48EEC42E49
:1044F00043E0D42EE12CF12C52E0252E1E821D82A9
:10450000D4018C918330B1F1811166C0F8018481AE
:104510009581A681B7810196A11DB11D84839583E4
:10452000A683B7830E94B4036419750986099709A5
:10453000A70196010E94FF30A90161E0C8010E9415
:10454000841F81E0D4018C938D819E810197C1F2FB
:104550000E94B4036419750986099709D801D69693
:104560002D913D914D915C91D997261737074807BA
:10457000590720F6C5010E947F14F80184819581B6
:10458000A681B7810196A11DB11D84839583A68361
:10459000B7830E94B403F801FE966083718382831F
:1045A00093838D819E8126960FB6F894DEBF0FBE51
:1045B000CDBFDF91CF911F910F91FF90EF90DF90D2
:1045C000CF90BF90AF909F908F907F906F905F90B3
:1045D0004F903F902F9008958430F1F4F80184813A
:1045E0009581A681B7810196A11DB11D8483958314
:1045F000A683B7830E94B4036419750986099709D5
:10460000A70196010E94FF30A90163E0C8010E9442
:10461000841FD4012C9298CF813051F5F80142AD1E
:1046200053AD64AD75AD9E012F5F3F4FC8010E9431
:104630009220382EF2E08F1390C089819A81AB814D
:10464000BC81F80184839583A683B7830E94B40359
:104650006419750986099709A70196010E94FF3020
:10466000A90163E0C8010E94841FD4013C926CCF71
:10467000823009F069CFF80142AD53AD64AD75AD3C
:104680009E012F5F3F4FC8010E949220382EF5E017
:104690008F135DC0E3E0D401EC93F80182A193A1F4
:1046A000A4A1B5A1892B8A2B8B2B41F484E893E03C
:1046B000A0E0B0E082A393A3A4A3B5A3F80186A1D0
:1046C00097A1A0A5B1A5892B8A2B8B2B61F482A180
:1046D00093A1A4A1B5A1B695A7959795879586A313
:1046E00097A3A0A7B1A7F80182A593A5A4A5B5A5F6
:1046F000892B8A2B8B2BA9F482A193A1A4A1B5A10C
:10470000AC01BD0123E076956795579547952A95AD
:10471000D1F7841B950BA60BB70B82A793A7A4A771
:10472000B5A7F80186A197A1A0A5B1A586A797A7CF
:10473000A0ABB1AB82A593A5A4A5B5A582AB93AB65
:10474000A4ABB5AB81E090E09E838D83FDCE96E077
:10475000891303C0D4011C92F7CEBFEF3B12F4CEF5
:10476000F4011082F1CE1E821D821BCF8F929F9288
:10477000AF92BF92EF92FF920F931F93CF93DF936D
:1047800000D000D000D0CDB7DEB70091F602109176
:10479000F7020115110509F4D0C00E94B4034B01C2
:1047A0005C0178012EE3E20EF11CF701808191811A
:1047B000A281B381A5019401281B390B4A0B5B0B25
:1047C000CA01B901683E33E0730781059105A0F184
:1047D00028EE33E040E050E00E94FF30861A970A4E
:1047E000A80AB90AD7018D929D92AD92BC921397F7
:1047F000F80186A597A5A0A9B1A949015A01880C7D
:10480000991CAA1CBB1C88159905AA05BB0508F0B4
:10481000A5C016A617A610AA11AAF80182A993A9E5
:10482000A4A9B5A988159905AA05BB0508F09FC0DC
:1048300012AA13AA14AA15AAF80186A597A5A0A9D9
:10484000B1A9892B8A2B8B2B09F09AC0EE5BFF4F05
:104850008081833009F094C084E08083C8010E9485
:1048600031220196D801D2964D915D916D917C9146
:10487000D597452B462B472BA1F4F801EE5BFF4F54
:104880002081233011F021110CC01082F8013E96D6
:1048900084E1DF011D928A95E9F7C8010E94312267
:1048A00003968230910519F0049709F046C080E51F
:1048B00091E00E9492010091F6021091F702B80176
:1048C000625F7F4FCE0101960E94350FCE010396A5
:1048D0000E94A40CB8016A5E7F4FCE0101960E942F
:1048E000350F44E050E0BE016D5F7F4F81E090E006
:1048F0000E94440BB8016E5E7F4FCE0101960E946C
:10490000350F44E050E0BE016D5F7F4F85E090E0E1
:104910000E94440BB801625E7F4FCE0101960E9457
:10492000350F8B819C81AD81BE8180931104909362
:104930001204A0931304B093140426960FB6F894AF
:10494000DEBF0FBECDBFDF91CF911F910F91FF90C2
:10495000EF90BF90AF909F908F900895821B930B24
:10496000A40BB50B86A797A7A0ABB1AB56CF821B04
:10497000930BA40BB50B82AB93ABA4ABB5AB5CCFE5
:1049800090E080E06FCFDF92EF92FF920F931F9342
:10499000CF93DF93CDB7DEB72E970FB6F894DEBF77
:1049A0000FBECDBF85E890E00E94F90D8091EE0228
:1049B00081112AC01092D6021092D50288EE93E09F
:1049C000A0E0B0E08093D7029093D802A093D902E0
:1049D000B093DA0280E491E09093D4028093D30202
:1049E0008EEA91E09093E2028093E1021092E3025A
:1049F0001092E4021092E5021092E60284E08093A5
:104A0000EB0281E08093EE0280E992E09093F7025E
:104A10008093F60280918F028111ADC060E372E055
:104A200080E090E00E948203DFB6F89407E812E08D
:104A30003BE9E32E32E0F32E80918E02811125C0F6
:104A4000F8018491F7019491E82FF0E0EE0FFF1F39
:104A5000E15AFD4FA591B4918C91982321F461E026
:104A60008AE00E94FE0261E08AE00E942C038CB57D
:104A700080618CBD8CB580648CBD61E08DE00E944E
:104A80002C0361E08BE00E942C0380918E028F5FEB
:104A900080938E02DFBEF8010491E02FF0E0EE0F6C
:104AA000FF1FE759FD4F859194919093FD028093EC
:104AB000FC02F701E490E092FB0261E08AE00E94D0
:104AC0002C030E94280B80E591E00E94920184E370
:104AD00080934D0380E80E94F40B0E9437158823D1
:104AE00009F4F5C088E00E94F40B0E942415883078
:104AF00009F0EDC080E10E94F40B0E942415803182
:104B000009F0E5C080E00E94F40B0E942415182FE4
:104B10008111DDC041E050E0BE016F5F7F4F8FE14A
:104B200090E00E94AF138981833009F0D0C080E407
:104B30008093FA0242E06EE170E0812F0E94500CF7
:104B400042E06FE170E0812F0E94500C1F5F143033
:104B500089F740E06EE170E0812F0E94500C40E048
:104B60006FE170E0812F0E94500C1F5F183089F7B1
:104B700081E080938F0280E591E00E94920146E0FF
:104B800050E060E071E089E090E00E94440B8EEA22
:104B900091E09A8389831B821C821D821E82CE0132
:104BA00003960E94A40C8091F6029091F702DC011A
:104BB00092961D921D921D921C929597FC0116A231
:104BC00017A210A611A69A961D921D921D921C92D4
:104BD0009D9740E65AEE60E070E046AB57AB60AFA1
:104BE00071AF40EA5FE060E070E0DA964D935D936C
:104BF0006D937C93DD973E9624E1DF011D922A950B
:104C0000E9F726E0E0E0F1E0DC01189601900D9272
:104C10002A95E1F7FC01EE5BFF4F10820E943122E2
:104C2000019709F0BDC080E591E00E9492010091DA
:104C3000F6021091F702B801625F7F4FCE01019634
:104C40000E94350FCE0103960E94A40CB8016A5E43
:104C50007F4FCE0101960E94350F44E050E0BE0127
:104C60006D5F7F4F81E090E00E94440BB8016E5E63
:104C70007F4FCE0101960E94350F44E050E0BE0107
:104C80006D5F7F4F85E090E00E94440BB801625E4B
:104C90007F4FCE0101960E94350F8B819C81AD81A3
:104CA000BE818093110490931204A0931304B093D7
:104CB00014040E945D037F738091060190910701A7
:104CC00068277927709307016093060169C087E31D
:104CD00080934D0380E80E94F40B0E9437158823CF
:104CE00029F188E00E94F40B0E9424158830F1F429
:104CF00080E10E94F40B0E942415182F8031B1F43A
:104D000080E00E94F40B0E94241581110FC041E045
:104D100050E0BE016F5F7F4F89E390E00E94AF13C8
:104D20008981843019F41093FA0222CF83E38093AF
:104D30004D0380E80E94F40B0E943715882371F11F
:104D400080E10E94F40B0E942415803139F582E144
:104D50000E94F40B0E942415823101F580E00E942C
:104D6000F40B0E942415811119C084E08093FA028B
:104D700015E51E8741E050E0BE01625F7F4F8BE189
:104D800090E00E94440B1D8741E050E0BE01635F4C
:104D90007F4F8AE190E00E94440BEACE10924D03CF
:104DA0006CED75E080E090E00E9482030EEA11E075
:104DB00018870F8319861A861B861C8680E591E06A
:104DC0000E94920144E050E0BE01675F7F4F8FE098
:104DD00090E00E94AF1349855A856B857C851B82C4
:104DE0001C821D821E828B819C81AD81BE814817F1
:104DF00059076A077B0791F188E690E00E94AE04AC
:104E00001A8309831B821C821D821E8280E591E029
:104E10000E94920144E050E0BE016D5F7F4F8FE041
:104E200090E00E94AF136EE473E0CE0101960E9401
:104E30008D0E60EB71E08EE493E00E94EA0D81E05C
:104E40002E960FB6F894DEBF0FBECDBFDF91CF9187
:104E50001F910F91FF90EF90DF9008958FE790E002
:104E60000E94F90D80E0ECCFEF92FF920F931F9319
:104E7000CF93DF937C018B010E94B40360317742B2
:104E80008105910570F0F701C481D581209781F4E7
:104E900010921103F801C481D5812097D1F41092AA
:104EA0002103DF91CF911F910F91FF90EF90089513
:104EB000CF30D10510F0CFE0D0E0F70160817181F3
:104EC000AE0181E193E00E946633CF5EDC4F188231
:104ED000E1CFC630D10510F0C6E0D0E0F801608126
:104EE0007181AE0181E293E00E946633CF5DDC4FB9
:104EF0001882D7CF2F923F924F925F926F927F92FC
:104F00008F929F92AF92BF92CF92DF92EF92FF92D9
:104F10000F931F93CF93DF93CDB7DEB76E970FB686
:104F2000F894DEBF0FBECDBF0E949302882361F1CB
:104F30004091EF045091F0046091F1047091F204FB
:104F4000E0913B05F0913C058091390590913A053F
:104F5000099560912505709126052EE030E0AE019F
:104F60004F5F5F4F8091290590912A050E94AF0500
:104F7000009721F489819A810E94FC019093480551
:104F8000809347050E941D028FE495E09093F504FD
:104F90008093F4048091E4049091E5042091E80466
:104FA0003091E9044091E6045091E7046091EA04ED
:104FB0007091EB04E1E0F0E0F0931F05E0931E0533
:104FC00010922005109221051092220510922305BF
:104FD0001092240570932A056093290550932605A5
:104FE0004093250530932C0520932B05909328059D
:104FF0008093270510922E0510922D0510923005F2
:1050000010922F051092320510923105109234053E
:1050100010923305109236051092350510923F0517
:1050200010924105109240058AE095E09093380572
:105030008093370584E195E090933A058093390594
:1050400088EF9AE090933C0580933B058CEB9AE0C7
:1050500090933E0580933D0540E050E0BA018AE020
:1050600095E00E94F80AE0913B05F0913C0540E094
:1050700050E0BA018091390590913A05099588E090
:1050800095E090933205809331058FE29AE09093FA
:1050900034058093330586E19AE09093360580933A
:1050A000350582E095E09093300580932F0581EEE1
:1050B00092E190932E0580932D058091F6049091B6
:1050C000F704009711F00E94D93188E392E00E9422
:1050D0001F339093F7048093F6048BE597E0909349
:1050E000FF048093FE0484EE94E090930305809384
:1050F000020584E397E290930505809304051092DE
:105100000705109206050E94BB0D8BE090E00E94FF
:105110003D318C0190930105809300058BE0D8010F
:105120001D928A95E9F787E292E00E941F330E9460
:10513000D70EF801608371838283938384E492E0C5
:105140000E941F330E94D70ED80117966D937D934E
:105150008D939C931A9781E016968C9316971596CB
:105160001C921E9214978EE190E09093ED04809330
:10517000EC0488E290E0A0E0B0E08093EF0490932C
:10518000F004A093F104B093F2048FED90E00E943C
:10519000F90D0E94930281110E941D028091F40476
:1051A0009091F50490930905809308056091F604A9
:1051B0007091F7044091FE045091FF04DC01ED91E1
:1051C000FC916115710509F450C00088F189E02D4A
:1051D0000995181619060CF45FC08DEF9FEF909398
:1051E0004805809347056CED75E080E090E00E94F3
:1051F00082030E949302882309F46DC285EC90E03B
:105200000E94AE0468E372E08EE493E00E94EA0D2F
:1052100060EB71E08EE493E00E94EA0D0E94B4120C
:1052200089E692E00E947D0F82E792E00E947D0F66
:105230008FE792E00E947D0F6E960FB6F894DEBF66
:105240000FBECDBFDF91CF911F910F91FF90EF90D7
:10525000DF90CF90BF90AF909F908F907F906F9096
:105260005F904F903F902F9008950684F785E02D32
:105270002EEA31E03A8329830091FA041091FB046D
:105280002091FC043091FD040B831C832D833E830D
:10529000BE016F5F7F4F9CCF8090EC049090ED0437
:1052A000B091EE04BE8F8CE492E00E94D70E698329
:1052B0007A838B839C83462E572E85E592E00E944D
:1052C000D70E688779878A879B87A62EB72E8AE5AF
:1052D00092E00E94D70E6C877D878E879F87C62EAF
:1052E000D72EE0900005F09001054091EF04509119
:1052F000F0046091F1047091F204E0913B05F091AB
:105300003C058091390590913A0509959401A8EEE4
:10531000B3E00E942131AB01BC01409320055093C2
:1053200021056093220570932305E0913B05F091E0
:105330003C05809137059091380509951092240518
:1053400000912505109126052090290530902A0509
:10535000388E2F8A020D131DE2E04E0E511C712C67
:10536000612CFAE04F0E511C611C711CE114F10418
:1053700071F0D7018D919C91119717962D913C91C9
:10538000820F931F0496480E591E611C711CA114B4
:10539000B10419F4C114D10479F0C5010296480E84
:1053A000591E611C711CC114D10431F0C601029652
:1053B000480E591E611C711CAE014D5E5F4FC3014A
:1053C000B2010E944E06029609F44AC1EF89F88D97
:1053D000E017F10709F48AC180E180838F89988DF5
:1053E0000196988F8F8BA3019201B801CE01479649
:1053F0000E946F05009709F02FC184E692E00E9499
:10540000D70E9B01AC01B801CE0147960E94410F17
:10541000009709F021C1EF89F88DE017F10709F431
:1054200065C184E08083EF89F88D9F012F5F3F4F36
:10543000388F2F8B8E8D482F50E0440F551FE1146D
:10544000F10489F0D70114968C911497880F880F76
:10545000880F4460842B8F7D16964C91B0E24B9F51
:10546000A0011124482BA114B10419F4C114D104D2
:1054700029F0C114D10409F0D0C0406820173107C9
:1054800009F434C141838F89988D0196988F8F8B51
:10549000A401B801CE0147960E949106009709F039
:1054A000DBC029813A814B815C81B801CE014796EE
:1054B0000E94410F009709F0CFC0E114F10499F167
:1054C000F7012081318142815381B801CE01479695
:1054D0000E94410F009709F0BFC0D70117964D9168
:1054E0005C91B801CE0147960E949106009709F0A1
:1054F000B3C0F7018780908481149104A1F08F8953
:10550000988D9801281B390B2815390508F4EEC031
:1055100061857285A4010E9446338F89988D880E1B
:10552000991E988E8F8AA114B10409F078C0C11415
:10553000D10409F074C08F89988D821993090E9453
:10554000FC01009709F088C01A8E198E42E050E0E5
:1055500070E060E0CE0149960E947507009709F05F
:105560007BC0898D9A8D029709F0A9C0809127058B
:105570009091280500912B0510912C05188F0F8B09
:10558000080F191FAE01435E5F4FB801CE01479669
:105590000E947B06009709F05FC08D8D807F80326E
:1055A00009F08DC0AE014D5E5F4FB801CE01479648
:1055B0000E94E405009709F04FC08B899C89AD8952
:1055C000BE890297A105B10509F073C0AE01445E22
:1055D0005F4FB801CE0147960E947B060097E1F528
:1055E000AE01455E5F4FB801CE0147960E947B0633
:1055F000009791F54C8D41702B8D223009F450C0ED
:1056000008F040C0222309F445C0213009F445C008
:1056100026E030E086EF9FEF28C0406C2FCF288532
:1056200039854A855B85B801CE0147960E94410FB6
:10563000009791F4AB2809F47ECFCD2809F47BCFF5
:105640002C853D854E855F85B801CE0147960E9429
:10565000410F009709F46FCF40E026E030E005C02D
:1056600040E026E030E089EF9FEF9093480580937B
:1056700047053093460520934505892B31F10E945B
:105680001D02B1CD243091F070F0253009F625E0EF
:1056900030E0C0CF30E020E0E8CF21E030E0BACF0A
:1056A00022E030E0B7CF23E030E0B4CF24E030E0B8
:1056B000B1CF40E026E030E088EF9FEFD6CF40E06A
:1056C00026E030E087EF9FEFD0CF4093F30481E0F6
:1056D0008093420588CD86EA90E00E94AE048091D6
:1056E0004705909148050E94550EA6CD8FEF9FEF7C
:1056F000B3CF0E949302811120C089EA91E00E94F9
:10570000F90D40E550E068E372E08FE495E00E9417
:10571000471E892B69F483E791E00E94F90D0E94EE
:10572000C32481110C947A2782EF90E00C94F90D38
:1057300083E591E00E94F90DF5CF8EE291E0F6CF7E
:105740001F920F920FB60F9211242F933F938F93B6
:105750009F93AF93BF938091290390912A03A091C7
:105760002B03B0912C033091280323E0230F2D3716
:1057700058F50196A11DB11D20932803809329039C
:1057800090932A03A0932B03B0932C0380912D03B5
:1057900090912E03A0912F03B09130030196A11D8B
:1057A000B11D80932D0390932E03A0932F03B093EC
:1057B0003003BF91AF919F918F913F912F910F90A7
:1057C0000FBE0F901F90189526E8230F0296A11D7B
:1057D000B11DD2CF1F920F920FB60F9211242F93AB
:1057E0003F934F935F936F937F938F939F93AF9369
:1057F000BF93EF93FF938EE493E00E943F04FF91E9
:10580000EF91BF91AF919F918F917F916F915F9138
:105810004F913F912F910F900FBE0F901F901895B1
:105820001F920F920FB60F9211242F938F939F9375
:10583000EF93FF93E0915E03F0915F038081E0912D
:105840006403F091650382FD1BC090818091670322
:105850008F5F8F7320916803821741F0E091670397
:10586000F0E0E25BFC4F958F80936703FF91EF912F
:105870009F918F912F910F900FBE0F901F901895B1
:105880008081F4CFCF93DF93EEE4F3E013821282B2
:1058900048EE53E060E070E044835583668377838D
:1058A0008AE691E09183808385EC90E095878487F8
:1058B00084EC90E09787868780EC90E0918B808BDA
:1058C00081EC90E0938B828B82EC90E0958B848BC3
:1058D00086EC90E0978B868B118E128E138E148E31
:1058E000EBEEF3E08EEA91E09183808312821382E3
:1058F00014821582E1EFF3E0918380831282138298
:1059000014821582E7EFF3E0918380831282138281
:1059100014821582EDEFF3E091838083128213826B
:1059200014821582E3E0F4E0918380831282138273
:1059300014821582E9E0F4E091838083128213825D
:1059400014821582E5E1F4E0918380831282138250
:1059500014821582EFE0F4E0918380831282138237
:1059600014821582EBE1F4E091838083128213822A
:1059700014821582E1E2F4E0918380831282138223
:1059800014821582EEE5F5E0918380831282138202
:1059900014821582EFE4F5E013821282448355836A
:1059A000668377832CE731E03183208324E02487EA
:1059B00028EE33E036872587C4EED4E02AE030E0D5
:1059C0003987288721E02A874B875C876D877E8708
:1059D0001F86198A188A1B8A1A8A9D8B8C8B1E8AAD
:1059E0001F8A188E198E1B8E1A8E1D8E1C8E1F8E6E
:1059F0001E8E19A218A21BA21AA21DA21CA21EA2D0
:105A00001FA218A619A61AA61BA61CA61DA61FA68D
:105A10001EA618AA19AA1AAA1BAA1CAA1DAA1EAA5F
:105A20001FAA19AE18AEEEE1F5E084E2DF011D9287
:105A30008A95E9F7109242051092440510924305A9
:105A400010924605109245051092480510924705A0
:105A50001092490510924A0510924B0510924C0580
:105A600010924E0510924D0580E890E0998388834E
:105A70009B838A8381E890E00E943D319D838C83E3
:105A800080E890E00E943D319F838E83E9ECF4E052
:105A90001286118680E09EE0A7E2B7E081839283C0
:105AA000A383B483158216821782108689E79BE24E
:105AB000928B818B1082138A148A158A168A138618
:105AC000148615861686EEEAF4E01286118680E0CA
:105AD0009CE8A6E8B7E481839283A383B48315820C
