:100000000C94DF000C9407010C9407010C94070179
:100010000C9407010C9407010C9407010C94070140
:100020000C9407010C9407010C9407010C94070130
:100030000C9407010C9407010C9407010C94070120
:100040000C9411280C9407010C9481280C945B28C3
:100050000C9407010C9407010C9407010C94070100
:100060000C9407010C9407016572726F720065644D
:1000700020746F20002E004D51545420636F6E6E1B
:100080006563740064726F70706564204D515454E0
:10009000207061796C6F6164210072656C617920F8
:1000A0006F70656E204F4E0031306D696E20737435
:1000B00061727465642E004E6F74206163636570B5
:1000C0007465642100496E6400270A476172647593
:1000D000696E6F207374617274696E6720776974DA
:1000E0006820495020002075706461746564207434
:1000F0006F2000454550524F4D20003A2000496E78
:10010000636F6D696E67204D5154543A20005761FA
:100110007920636C6561722E0057616974696E673E
:1001200020666F7220636C656172207761792E00A2
:1001300072656C6179206F70656E204F4646004491
:10014000656C617920737461727465642E00566504
:100150006869636C65206F6E206C6F6F702E000095
:10016000000000240027002A0000000000250028CD
:10017000002B0000000000230026002900040404D6
:100180000404040404020202020202030303030340
:10019000030102040810204080010204081020011D
:1001A00002040810200000000800020100000304FF
:1001B00007000000000000000000B328B82F112441
:1001C0001FBECFEFD8E0DEBFCDBF12E0A0E0B1E0B0
:1001D000E8EEF6E602C005900D92AC39B107D9F70A
:1001E00024E0ACE9B2E001C01D92AC3DB207E1F7FA
:1001F00010E0CEEDD0E004C02197FE010E9429312D
:10020000CD3DD107C9F70E94BA290C9467330C94ED
:1002100000008F929F92AF92BF92CF92DF92EF92A7
:10022000FF920F931F93CF93DF9300D0CDB7DEB72C
:100230004C015B01D12CC12CCA14DB0418F090E0F6
:1002400080E02DC0E091B104F091B2048091AD0442
:100250009091AE0409951616170618061906ECF4C7
:100260001A821982E091A904F091AA047B018C0101
:100270009E012F5F3F4FA5014C195D09B4016C0D24
:100280007D1D8091A5049091A6040995009739F4ED
:1002900089819A81C80ED91ECFCF8CEF9FEF0F9026
:1002A0000F90DF91CF911F910F91FF90EF90DF9012
:1002B000CF90BF90AF909F908F900895CF93DF9392
:1002C000BC0180919D0490919E040E940901EC0163
:1002D000892B89F44091940450919504609196047F
:1002E00070919704E091AF04F091B0048091AB0459
:1002F0009091AC040995CE01DF91CF9108958F9232
:100300009F92AF92BF92CF92DF92EF92FF920F93A4
:100310001F93CF93DF9300D0CDB7DEB79C01260F9C
:10032000371F40919B0450919C044217530708F4D7
:100330004CC05B014C01D12CC12CCA14DB0418F059
:1003400090E080E033C0E091B104F091B20480917C
:10035000AD049091AE0409957B018C011E141F041D
:10036000100611060CF51A82198260919F04709193
:10037000A004C4018C0D9D1D680F791FE091A70496
:10038000F091A8049E012F5F3F4FA5014C195D0914
:100390008091A5049091A6040995009739F489816C
:1003A0009A81C80ED91EC9CF8CEF9FEF0F900F9086
:1003B000DF91CF911F910F91FF90EF90DF90CF9041
:1003C000BF90AF909F908F9008958FEF9FEFEECFEB
:1003D0001092B6048091680490916904DC01ED915B
:1003E000FC910488F589E02D09948091680490912E
:1003F0006904009711F480E00895DC01ED91FC910F
:100400000688F789E02D09958130A9F78091B60417
:1004100008958CBD9DBD089520E3FC012083329694
:10042000862F82958F706F706A3030F4605D6293B2
:10043000682F8111F5CF0895695CF9CFFC01818D9A
:10044000928D08950895833081F028F4813099F0D9
:100450008230A9F008958730A9F08830C9F084303F
:10046000B1F4809180008F7D03C0809180008F77F0
:1004700080938000089584B58F7784BD089584B5F6
:100480008F7DFBCF8091B0008F778093B00008956F
:100490008091B0008F7DF9CFCF93DF93282F30E08C
:1004A000F901EB55FE4F8491F901EF56FE4FD491BF
:1004B000F901E358FE4FC491CC23A1F081110E94B1
:1004C0002302EC2FF0E0EE0FFF1FED58FE4FA59139
:1004D000B491EC91ED2381E090E009F480E0DF91AC
:1004E000CF91089580E090E0FACF1F93CF93DF93F0
:1004F000282F30E0F901EB55FE4F8491F901EF56BA
:10050000FE4FD491F901E358FE4FC491CC23A9F0DA
:10051000162F81110E942302EC2FF0E0EE0FFF1F37
:10052000E759FE4FA591B4918FB7F894EC91111152
:1005300008C0D095DE23DC938FBFDF91CF911F9150
:100540000895DE2BF8CFCF93DF9390E0FC01EF56B8
:10055000FE4F249183589E4FFC0184918823D1F053
:1005600090E0880F991FFC01E15AFE4FA591B491CC
:10057000FC01E759FE4FC591D491623071F49FB7E9
:10058000F8943C91822F809583238C93E8812E2BC5
:1005900028839FBFDF91CF9108958FB7F894EC9196
:1005A0002E2B2C938FBFF6CF3FB7F89480915E032C
:1005B00090915F03A0916003B091610326B5A89B61
:1005C00005C02F3F19F00196A11DB11D3FBFBA2FE5
:1005D000A92F982F8827BC01CD01620F711D811DA5
:1005E000911D42E0660F771F881F991F4A95D1F72A
:1005F00008958F929F92AF92BF92CF92DF92EF9227
:10060000FF924B015C010E94D4026B017C010E94AD
:10061000D4026C197D098E099F09683E73408105DB
:100620009105A8F321E0821A9108A108B10888EE8B
:10063000C80E83E0D81EE11CF11C81149104A104B2
:10064000B10429F7FF90EF90DF90CF90BF90AF906B
:100650009F908F9008952FB7F89460915A037091EE
:100660005B0380915C0390915D032FBF0895089513
:10067000AF92BF92CF92DF92EF92FF920F931F93B0
:10068000CF93DF936C017B018B01040F151FEB01EE
:100690005E01AE18BF08C017D10759F06991D601A5
:1006A000ED91FC910190F081E02DC6010995892B17
:1006B00079F7C501DF91CF911F910F91FF90EF90D6
:1006C000DF90CF90BF90AF900895FC01538D448D83
:1006D000252F30E0842F90E0821B930B541710F0ED
:1006E000CF96089501970895FC01918D828D9817FA
:1006F00061F0A28DAE0FBF2FB11D5D968C91928DD2
:100700009F5F9F73928F90E008958FEF9FEF089502
:10071000FC01918D828D981731F0828DE80FF11DCB
:10072000858D90E008958FEF9FEF0895FC01918DE6
:10073000228D892F90E0805C9F4F821B91098F73DF
:10074000992708958FE793E00E94960321E0892B73
:1007500009F420E0822F089580E090E0892B29F0B1
:100760000E94A20381110C9400000895FC01A48D45
:10077000A80FB92FB11DA35ABF4F2C91848D90E0C3
:1007800001968F739927848FA689B7892C93A089A6
:10079000B1898C91837080648C93938D848D981330
:1007A00006C00288F389E02D80818F7D80830895C3
:1007B000EF92FF920F931F93CF93DF93EC0181E0B1
:1007C000888F9B8D8C8D98131AC0E889F989808158
:1007D00085FF15C09FB7F894EE89FF896083E8898B
:1007E000F98980818370806480839FBF81E090E07D
:1007F000DF91CF911F910F91FF90EF900895F62E0A
:100800000B8D10E00F5F1F4F0F731127E02E8C8DA3
:100810008E110CC00FB607FCFACFE889F9898081E8
:1008200085FFF5CFCE010E94B603F1CFEB8DEC0F23
:10083000FD2FF11DE35AFF4FF0829FB7F8940B8F05
:10084000EA89FB8980818062CFCF0F931F93CF937A
:10085000DF938C01D0E0C0E0F801EC0FFD1F649144
:10086000662341F08FE793E00E94D803892B11F0B3
:100870002196F2CFCE01DF91CF911F910F91089574
:10088000CF93DF93EC01888D8823B9F0AA89BB89C7
:10089000E889F9898C9185FD03C0808186FD0DC0B2
:1008A0000FB607FCF7CF8C9185FFF2CF808185FFD3
:1008B000EDCFCE010E94B603E9CFDF91CF9108952D
:1008C0000F931F93CF93DF93EC01B0E0A0E0E8819A
:1008D000F9818D010F5F1F4FCB018E1B9F0B80177E
:1008E000910758F1822F8F7797E056954795379566
:1008F00027959A95D1F7211531054105510509F044
:100900008068EA0FFB1F80832115310541055105E1
:1009100069F488819981800F911F9983888390E081
:1009200080E0DF91CF911F910F910895D80104309D
:10093000110569F68EEF9FEFF4CF8FEF9FEFF1CFA8
:10094000EF92FF920F931F93CF93DF9300D0CDB719
:10095000DEB7680F791FE4E0220F331FEA95E1F755
:1009600068177907F9F07A018C01FC012193FA8369
:10097000E98320E030E0A901CE0101960E946004E5
:10098000009739F429813A81201B310BF70131831B
:1009900020830F900F90DF91CF911F910F91FF90C7
:1009A000EF9008958FEF9FEFF4CF4F925F926F9289
:1009B0007F929F92AF92BF92CF92DF92EF92FF927F
:1009C0000F931F93CF93DF936C018A01DA011D927D
:1009D0001D921D921C921397DC01ED91FC917B01FD
:1009E000EE1AFF0A5F01D0E0C0E0412C512C320129
:1009F00043942196EC16FD06E0F1C530D105E1F1F6
:100A0000D5019D905D01A92DAF77B0E0A3019201C2
:100A10000E94A730D8012D913D914D915C91139783
:100A2000260F371F481F591F2D933D934D935C93FD
:100A3000139787E0440C551C661C771C8A95D1F7E8
:100A400097FCD7CFEC0FFD1FD601ED93FC9390E000
:100A500080E0DF91CF911F910F91FF90EF90DF9099
:100A6000CF90BF90AF909F907F906F905F904F908E
:100A700008958FEF9FEFEDCF8EEF9FEFEACFFA0152
:100A8000603871058105910538F481E090E091832B
:100A9000808390E080E00895611520E4720781056D
:100AA000910518F482E090E0F2CF6115710520E223
:100AB0008207910518F483E090E0E9CF6115710594
:100AC0008105904118F484E090E0E1CF118210821A
:100AD0008EEF9FEF0895FC01A081B181A617B707A3
:100AE00029F4DA011C928FEF9FEF08958C91DA01BF
:100AF0008C938081918101969183808390E080E046
:100B00000895FC01A081B1816A1B7B0B62307105E5
:100B100068F05C93A081B18111964C9380819181A2
:100B200002969183808390E080E008958FEF9FEF9D
:100B30000895AF92BF92CF92DF92EF92FF920F9300
:100B40001F93CF93DF9300D0CDB7DEB77C01E60EC5
:100B5000F71EE1E0F0E02630310511F0F0E0E0E0D2
:100B6000EE0FFF1F74E0220F331F7A95E1F7E22B9F
:100B7000E816F90669F16A015C01DC01ED93BA83BC
:100B8000A98322E030E040E050E0B701CE010196B9
:100B90000E946004009779F4A801B701CE01019684
:100BA0000E948105009739F429813A812A193B096D
:100BB000F601318320830F900F90DF91CF911F9129
:100BC0000F91FF90EF90DF90CF90BF90AF9008957E
:100BD0008FEF9FEFF0CFCF93DF93DC01ED91FC918E
:100BE00011976E1B7F0B6230710540F4EA01198288
:100BF00018828FEF9FEFDF91CF910895208130E031
:100C0000322F22279181290F311DEA013983288350
:100C10003296ED93FC9390E080E0EDCFCF92DF929F
:100C2000EF92FF920F931F93CF93DF9300D000D0EA
:100C300000D01F92CDB7DEB76A0179019E838D8304
:100C40008C01060F171F1F82AE01495F5F4FB8016D
:100C5000CE0105960E946B05009771F52F81822FBA
:100C6000807F90E034E0959587953A95E1F78C1573
:100C70009D0529F42F70069729F4223029F087EF7B
:100C80009FEF1AC02111FBCFAE014F5F5F4FB8013C
:100C9000CE0105960E94D504009771F489819A814E
:100CA000AB81BC810297A105B105A9F4A701B801E8
:100CB000CE0105960E94EB0527960FB6F894DEBF8D
:100CC0000FBECDBFDF91CF911F910F91FF90EF909D
:100CD000DF90CF90089588EF9FEFEECF2F923F9255
:100CE0004F925F926F927F928F929F92AF92BF923C
:100CF000CF92DF92EF92FF920F931F93CF93DF93E8
:100D0000CDB7DEB766970FB6F894DEBF0FBECDBF86
:100D10003C017E8B6D8B1A01F12CE12CF3011182C9
:100D2000108261E070E090E080E00E947F018C3FE3
:100D3000FFEF9F0709F420C1009709F05AC06091A6
:100D40009F047091A004F301118210827A83698359
:100D50006F5F7F4FAE01485F5F4FCE0101960E94EB
:100D60006B05009709F045C08885807F90E034E0EE
:100D7000959587953A95E1F7F301918380838930C2
:100D8000910579F04CF40297069758F0F30111821F
:100D9000108287EF9FEF2DC08B30910511F00D97DA
:100DA000A9F719821A821B821C8210E000E0280138
:100DB000FFEF4F1A5F0A61E070E0C2010E947F01FD
:100DC0000097B9F460919F047091A0046F5F7F4F0A
:100DD00079876887640D751DAE014F5F5F4FCE0147
:100DE00008960E94D5048E3F2FEF9207D9F489EF21
:100DF0009FEF66960FB6F894DEBF0FBECDBFDF91B2
:100E0000CF911F910F91FF90EF90DF90CF90BF9007
:100E1000AF909F908F907F906F905F904F903F909A
:100E20002F9008950097C9F469817A818B819C8104
:100E30004B012091B30421111AC061157105810580
:100E4000910509F091C089809A80FFEF8F1A9F0A5F
:100E50008E0C9F1C840C951C35C019821A821B8233
:100E60001C8282018F3F980709F4A1CFC2CF98015D
:100E70002E5F3F4F5B016C01A20EB31EC11CD11C43
:100E800020919B0430919C0450E040E02A153B05E2
:100E90004C055D0590F68114910489F5F3011182EA
:100EA0001082E091B404F091B504309759F080813C
:100EB0009181A281B3810196A11DB11D808391838F
:100EC000A283B383F30180819181009709F493C1D8
:100ED0008530910509F442C108F050C0039709F428
:100EE00057C02114310409F47DC1F301808191813F
:100EF0002816390609F082C190E080E07ACFE091AF
:100F0000B104F091B2048091AD049091AE040995C2
:100F10007B018C011E141F041006110614F540916C
:100F20009B0450919C048416950608F4A40119862C
:100F3000188660919F047091A004E091A704F0913D
:100F4000A8049E01285F3F4F8091A5049091A604BC
:100F50000995009709F04DCF88859985881A990AD7
:100F60009ACF8CEF9FEF45CFC80102960E947F0178
:100F7000009709F468CF3DCF4701A4CF8630910593
:100F800009F415C10D9709F0ACCF10929804A9CFC0
:100F900080919B0490919C04E0909F04F090A004A9
:100FA000FF86EE86E80EF91EAE01405F5F4FB70187
:100FB000CE010E960E946B05009709F01ACF888922
:100FC000982F907F903309F0E4CE982F91709B83F7
:100FD000867090E095958795813009F4A2C038F02D
:100FE000823009F0D6CE92E0492E512C02C0512C0D
:100FF000412CAE01485F5F4FB701CE010E960E94B3
:10100000D504009709F0F5CE488559856A857B851A
:10101000423051056105710508F49DC00E851F859C
:10102000E01AF10AC701FF0CAA0BBB0B8417950746
:10103000A607B70708F4DCC0040F151FAE01445F14
:101040005F4FB801CE010E960E94EB05009709F0A4
:10105000D0CE2C853D852115310509F066C01C8A4E
:101060001B8A3A8B298B4114510409F46EC0AE01DE
:10107000445F5F4FB801CE010E960E94EB050097CA
:1010800009F0B7CE8C859D85892B09F482CE8E859B
:101090009F85081B190B1F830E83012B09F058C075
:1010A0001D821C82E091A104F091A2043097A1F06E
:1010B0006091A3047091A404A42C5A824982BA803E
:1010C000CB80DC80ED80FE800F8129893A894B89B5
:1010D0005C8982E994E009954114510409F401CF37
:1010E00024E030E04A94452811F025E030E00C85FA
:1010F0001D856091990470919A04AE01485F5F4F1D
:1011000080919D0490919E040E949905009709F09A
:1011100070CE888599850E945E01009709F4E1CE22
:1011200068CE44244394512C64CF8E859F85A801BA
:10113000481B590B4217530708F45AC09C8B8B8BE2
:10114000820F931F9F878E878CCF1D861C869FCF13
:101150009D838C83A7CF88EF9FEF4BCE60919B043C
:1011600070919C049E01285F3F4F45E050E08091C4
:101170009F049091A0040E940E06009709F039CEBA
:10118000088519856091990470919A0426E030E0F1
:10119000AE014F5F5F4F80919D0490919E040E942D
:1011A0009905009709F025CE89819A81B4CF609185
:1011B0009B0470919C049E01285F3F4F46E050E0E5
:1011C00080919F049091A0040E940E06009709F060
:1011D00010CE088519856091990470919A0427E0D2
:1011E00030E0D6CF8D899E89892B09F07ECE84CEC2
:1011F0008FEF9FEFFECD21143104A1F3E091B104F4
:10120000F091B2048091AD049091AE040995161648
:101210001706180619060CF06FCEED89FE89309777
:1012200021F08E169F0608F067CE740177CDCF931C
:10123000DF93E901DC018D919C91DC01ED91FC9142
:101240000280F381E02D099599838883892B29F009
:1012500090E080E0DF91CF9108958AEF9FEFFACF81
:101260002F923F924F925F926F927F928F929F92B6
:10127000AF92BF92CF92DF92EF92FF920F931F93A4
:10128000CF93DF9300D000D0CDB7DEB79A838983A8
:101290006B015C834B831901270138010E942B03EA
:1012A0004B015C01D1011D921C92EB81FC81EF2B63
:1012B00091F10E942B03681979098A099B09641529
:1012C00075058605970538F5A981BA818D919C91A0
:1012D000DC01ED91FC910288F389E02D4B815C816A
:1012E000B601099518161906A4F161E070E080E0D6
:1012F00090E00E94F902A981BA818D919C91DC0154
:10130000ED91FC910688F789E02D09958111CDCFEB
:101310008BEF9FEF07C0F10180819181892B51F103
:1013200090E080E00F900F900F900F90DF91CF91A1
:101330001F910F91FF90EF90DF90CF90BF90AF90F3
:101340009F908F907F906F905F904F903F902F90E5
:101350000895C80ED91ED1012D913C911197280FE7
:10136000391F2D933C93EB81FC81E81BF90BFC8327
:10137000EB839BCF8CEF9FEFD5CFCF92DF92EF9295
:10138000FF920F931F93CF93DF93EC01E885F985CC
:10139000309739F10995088119812A813B816017BD
:1013A00071078207930700F50095109520953095F9
:1013B000600F711F821F931F0C811D812E813F8141
:1013C00068017901C61AD70AE80AF90AC701B60105
:1013D000DF91CF911F910F91FF90EF90DF90CF9011
:1013E00008950E942B03D7CF601B710B820B930BC8
:1013F000E3CFCF93DF93EC014C835D836E837F83D8
:10140000E885F985309741F00995688379838A8367
:101410009B83DF91CF9108950E942B03F6CFFC01AF
:1014200020812EBD9B012150310941F051810DB425
:1014300007FEFDCF4EB55EBD4193F5CF61507109FA
:10144000860F971F0DB407FEFDCF2EB5FC0120833C
:101450000895E0919D02F0919E02808190919C02FE
:10146000892B80830895E0919D02F0919E029081E6
:1014700080919C0280958923808308958EBD000011
:101480000DB407FEFDCF8EB50895AF92BF92CF92F7
:10149000DF92EF92FF920F931F93CF93DF93CDB71D
:1014A000DEB728970FB6F894DEBF0FBECDBF8C0114
:1014B0007B016A0180917E038333E1F45801A40E1D
:1014C000B51EA016B10609F46FC00E94330A80EF62
:1014D0000E943E0A812F0E943E0A802F0E943E0AEF
:1014E0000F5F1F4FF70181917F010E943E0A0E940A
:1014F000290AE7CF5B01A40EB51E8433C1F40E9414
:10150000330A19830A838D2D80688B83CC8264E033
:1015100070E0CE0101960E940F0AAE14BF0409F4D8
:1015200041C0F70181917F010E943E0AF6CF0E94DF
:10153000330A0F3F110509F028F419820A8384E069
:101540008B830CC017FD17C019820A8333E01695F0
:1015500007953A95E1F7007E0C600B8386E0C8168C
:10156000D104A0F5F701DE011496EA15FB0599F008
:1015700081918D93FACFC80126E0969587952A959B
:10158000E1F7807E19830A830115104C10F4846101
:10159000D7CF8C61D5CFB6016D5F7F4FCE0101965D
:1015A0000E940F0A0E94290AC60128960FB6F894D5
:1015B000DEBF0FBECDBFDF91CF911F910F91FF9086
:1015C000EF90DF90CF90BF90AF90089563E070E010
:1015D000CE0101960E940F0AF70181917F010E94BE
:1015E0003E0AAE14BF04C1F7DDCFCF93DF931F9245
:1015F000CDB7DEB7898341E050E0BE016F5F7F4F1A
:1016000090E080E00E94450A0F90DF91CF9108950D
:1016100090E020917E03233339F40C96982F990F94
:10162000990F990F80E008954896F8CFDA01E0917C
:10163000A002F0E0FE2FEE27E60FF71F90E0982FB4
:101640008827A901BD018E0F9F1F0C94450ACF93D7
:10165000DF9300D0CDB7DEB779836A8322E030E034
:10166000AE014F5F5F4F60E170E00E94160B0F907C
:101670000F90DF91CF910895CF93DF9300D0CDB736
:10168000DEB779836A8322E030E0AE014F5F5F4FBF
:1016900064E070E00E94160B0F900F90DF91CF91E5
:1016A0000895CF93DF931F92CDB7DEB72091A002AC
:1016B00030E0322F2227260F371F90E0982F8827FF
:1016C000498341E050E0BE016F5F7F4F820F931F5F
:1016D0000E94450A0F90DF91CF910895CF93DF9339
:1016E0001F92CDB7DEB76983DC01ED91FC910280DA
:1016F000F381E02D41E050E0BE016F5F7F4F09951F
:101700000F90DF91CF910895FC019485FB018485B2
:10171000981303C081E0943008F080E00895CF93DF
:10172000DF931F92CDB7DEB76983DC01ED91FC91A9
:101730000280F381E02D41E050E0BE016F5F7F4FFA
:1017400009950F90DF91CF91089544E050E0BC01DE
:101750008FE090E00C94450A0895FF920F931F9339
:10176000CF93DF93EB01FC01178A168A2A8121119E
:1017700009C02B81211106C02C81211103C02D81AC
:10178000222301F141155105E9F08A01FC01F08C99
:1017900080E591E00E940902AE014E5F5F4F24E0B8
:1017A00030E06CE070E08F2D0E94160BB8018F2D99
:1017B0000E94270B81E090E0DF91CF911F910F9164
:1017C000FF90089580E0F7CFFC018485958508950A
:1017D000FC0184899589089527E931E0FC01318372
:1017E0002083FB014089518962897389FC0142830E
:1017F0005383648375830895DC01ED91FC91048C1F
:10180000F58DE02D099490E080E0089510923A0360
:1018100010923B03809106018230A9F030F48823B6
:1018200051F061E0813041F00895843001F188F099
:101830008530F9F0089560E087E00E94750260E06D
:1018400086E00C94750261E087E00E94750261E019
:10185000F7CF61E087E00E94750261E086E00E94B8
:10186000750281E080933B0380933A03089560E022
:10187000EBCF60E087E00E94750261E086E00E94A5
:10188000750281E0F1CF83E00E944C020197E9F1FB
:1018900089E00E944C02892B81F089E00E944C0271
:1018A000019791F488E00E944C02892B69F48091A1
:1018B0005803811109C082E0089588E00E944C021B
:1018C000019759F781E0089589E00E944C02019741
:1018D00059F488E00E944C02892B31F4809158031E
:1018E000882311F083E0089589E00E944C0201975B
:1018F00051F488E00E944C02019729F483E00E9491
:101900004C02892B21F085E0089580E0089584E061
:101910000895FC01768765870895DC01ED91FC91BF
:1019200002A0F3A1E02D099591E089270895862F63
:10193000089581E08627089521E0FC0184858430A4
:1019400008F020E0822F08950895E0917404F0914A
:1019500075043097F1F087819085892B21F081857E
:1019600092850E94CB31E0917404F09175048081DE
:101970009181892B21F0828193810E94CB318091CA
:101980007404909175040E94CB31109275041092EA
:1019900074040895FC0180819181009711F00C94EA
:1019A000CB3108950C94CB31FB0101900020E9F775
:1019B0003197AF01461B570BDC01ED91FC91028082
:1019C000F381E02D0994CF93DF930E942504EC016D
:1019D00069E971E08FE793E00E94D40C8C0F9D1FA2
:1019E000DF91CF91089561E085E00E9475020E9429
:1019F0002B036093430370934403809345039093B8
:101A0000460381E0809342038AE990E00C94E30C62
:101A10008F929F92AF92BF92EF92FF920F931F937C
:101A2000CF93DF93CDB7DEB7A1970FB6F894DEBFA3
:101A30000FBECDBF7C01FA01CB0119A2223008F400
:101A40002AE08E010F5D1F4F822E912CB12CA12C0C
:101A5000BF01A50194010E94F130F901CA016A3069
:101A60000CF5605DD8016E938D01232B242B252B63
:101A700079F790E080E0109721F0BD01C7010E9446
:101A8000D40CA1960FB6F894DEBF0FBECDBFDF9188
:101A9000CF911F910F91FF90EF90BF90AF909F90CB
:101AA0008F900895695CDECFCF92DF92EF92FF9224
:101AB000CF93DF936C01990FEE08FF08F7FE23C068
:101AC0006DE28FE793E00E94D803EC01442755278D
:101AD000BA014C195D096E097F092AE08FE793E08E
:101AE0000E94080DC80FD91F69E971E08FE793E0E4
:101AF0000E94D40C8C0F9D1FDF91CF91FF90EF902F
:101B0000DF90CF9008952AE0B701A6018FE793E018
:101B10000E94080DEC01E8CF8F929F92AF92BF9286
:101B2000CF92DF92EF92FF920F931F93CF93DF93A9
:101B30007C01EB016C0182E0C80ED11C4701E5E09D
:101B40008E0E911C10E000E0F60141916F0150E013
:101B500070E060E02AE0CE010E94080D5C01E8819F
:101B6000F9810190F081E02D6EE2CE0109958A0D98
:101B70009B1D080F191FC814D90431F7F7014581BF
:101B800050E070E060E02AE0CE010E94080D800F76
:101B9000911FDF91CF911F910F91FF90EF90DF90F8
:101BA000CF90BF90AF909F908F900895CF93DF9389
:101BB000D0E0C0E0009731F0BC018FE793E00E94D5
:101BC000D40CEC0169E971E08FE793E00E94D40C3A
:101BD0008C0F9D1FDF91CF910895809106019FEF9B
:101BE000980F933020F087EB90E00C94E30C833057
:101BF00049F48CE991E00E94D60D1092580310929E
:101C000057030895813011F40E94F30C81E0809312
:101C100058030E942B03609336037093370380931D
:101C200038039093390388EA90E0DFCF009729F0DA
:101C3000BC018FE793E00C94D40C90E080E0089511
:101C4000DC0160E070E0CB01109709F40895FD011C
:101C500001900020E9F73197EA1BFB0BB9F3BF01B4
:101C6000CD010895AF92BF92CF92DF92EF92FF9293
:101C70000F931F93CF93DF9300D000D0CDB7DEB783
:101C80008C016B017A0180917E038333E9F45B015F
:101C90006801C40ED51EC016D106A9F10E94330AF0
:101CA0008FE00E943E0A812F0E943E0A802F0E94F0
:101CB0003E0A0F5F1F4F80E00E943E0AF5018193AC
:101CC0005F010E94290AE7CF843369F50E94330A35
:101CD00019830A838F2D8F778B83EC8264E070E009
:101CE000CE0101960E940F0AA70170E060E0C601D4
:101CF0000E944133E114F10421F0B701C6010E94B2
:101D00000F0A0E94290AC7010F900F900F900F90A1
:101D1000DF91CF911F910F91FF90EF90DF90CF90C7
:101D2000BF90AF9008950E94330A0F3F110509F04C
:101D300030F419820A831B8263E070E0D1CF17FD73
:101D40000BC019820A8333E0169507953A95E1F79F
:101D5000007E08600B83F0CFC80126E0969587953A
:101D60002A95E1F7807E19830A830115104C18F437
:101D700080618B83E1CF8861FCCFCF93DF931F928B
:101D8000CDB7DEB72091A00230E0322F2227260FF8
:101D9000371F90E0982F882741E050E0BE016F5F29
:101DA0007F4F820F931F0E94320E89810F90DF9127
:101DB000CF910895CF93C82F462F61E070E00E9425
:101DC000510B61E070E08C2F0E94BD0E8111F9CFA4
:101DD000CF910895CF93C82F80E591E00E9409022A
:101DE00068E070E08C2FCF910C94DA0ECF93C82F5F
:101DF00080E591E00E94090260E170E08C2FCF91B4
:101E00000C94DA0ECF93DF93EC01888D843020F4AC
:101E10000E94F60E84E0888FDF91CF910895CF93D2
:101E2000C82F80E591E00E94090263E070E08C2FEA
:101E3000CF910C94BD0ECF93DF93EC018C85843051
:101E4000D0F40E940F0F843189F0882379F0883113
:101E500069F021E08C3159F4E881F9810084F18541
:101E6000E02DCE01099521E0892B09F420E0822F95
:101E7000DF91CF91089580E0FBCFCF92DF92EF9278
:101E8000FF92CF93DF93EC018C85843068F40E943D
:101E9000EA0E0E942B036B017C018C850E940F0FC0
:101EA000811109C084E08C87DF91CF91FF90EF9082
:101EB000DF90CF90089561E070E080E090E00E94B4
:101EC000F9020E942B03AB01BC014C195D096E099C
:101ED0007F098D859E85B0E0A0E0481759076A0705
:101EE0007B07D8F28C850E94F60EDCCFCF93FC01E5
:101EF000C08D80E591E00E94090260E270E08C2FC5
:101F00000E94DA0E62E070E08C2F0E94BD0E84FD0C
:101F100016C062E070E08C2F0E94BD0E83FF0AC0E5
:101F200048E162E070E08C2F0E94510B80E090E06D
:101F3000CF91089580E591E00E940902E3CF40E14E
:101F400062E070E08C2F0E94510B81E0F0CFCF93C4
:101F5000DF931F92CDB7DEB741E050E0BE016F5F67
:101F60007F4F90E080E00E94320E89810F90DF91D8
:101F7000CF910895CF93DF93C4E1D0E00E94A70FE3
:101F8000882361F061E070E080E090E00E94F90257
:101F90002197A1F780E0DF91CF91089581E0FBCFF9
:101FA0001F93CF93DF931F92CDB7DEB7182F80E535
:101FB00091E00E940902812F0E94080B27E0129FE6
:101FC000F0011124EE59FC4F22813381377041E03A
:101FD00050E0BE016F5F7F4F820F931F0E94320E51
:101FE00089810F90DF91CF911F910895FC01808D21
:101FF000843040F4218D328D232B21F00E94D00FAC
:1020000090E008958FEF9FEF0895CF93DF93FC0149
:102010002485243028F08FEF9FEFDF91CF91089532
:10202000EC010190F081E02D0084F185E02D09950F
:10203000892B89F38C850E94D00F90E0EECFDA01D6
:10204000E091A002F0E0FE2FEE27E60FF71F90E0F0
:10205000982F8827A901BD018E0F9F1F0C94320E67
:102060008F929F92AF92BF92CF92DF92EF92FF92A8
:102070001F93CF93DF93CDB7DEB72C970FB6F894AD
:10208000DEBF0FBECDBF20917E0314E0222339F1C5
:102090006B017C0180E591E00E9409025E0127E06E
:1020A000A20EB11C450110E063E070E0812F0E9498
:1020B000BD0EF40181934F01882349F11F5F143055
:1020C00099F710E0F50181915F018D31D9F08831E8
:1020D000C9F08A518230B0F01F5F143099F7812F18
:1020E0002C960FB6F894DEBF0FBECDBFDF91CF9117
:1020F0001F91FF90EF90DF90CF90BF90AF909F9097
:102100008F90089560E170E0812F0E94DA0EA12E79
:10211000B12C83EE93E00197F1F742E870E060E0C4
:10212000812F0E94510B4FEF62E070E0812F0E94DF
:10213000510BB601C114D10491F480910701909123
:10214000080101968115F0EC9F0708F45CC090939C
:102150000801809307016091070170910801812FA8
:102160000E943C0B86E0E3E1F1E0DE011196019074
:102170000D928A95E1F7F70183818F778C838481B3
:102180008D8385818E83A7014E5F5F4F24E030E011
:102190006CE070E0812F0E94160BB601812F0E9427
:1021A000270B26E030E0AE014F5F5F4F66E070E046
:1021B000812F0E94160B61E070E0812F0E94DA0EE1
:1021C00027E02A9DC0012B9D900D11249C012E59C2
:1021D0003C4F7901F9011182108222E030E0AE011A
:1021E000455F5F4F68E270E0812F0E941F108B8572
:1021F0009C85982789279827F701938382831682E5
:10220000158214826CCF80E090ECA1CFCF92DF9248
:10221000EF92FF920F931F93CF93DF9300D000D0E4
:1022200000D0CDB7DEB78C016B017A01FC01808D47
:10223000843010F40E94F60E87E991E09A83898336
:10224000F60182819381A481B5818B839C83AD83C8
:10225000BE83B701CE0101960E943010F801808F35
:102260008430A0F4F586E486128E118E81E02696E5
:102270000FB6F894DEBF0FBECDBFDF91CF911F9197
:102280000F91FF90EF90DF90CF90089580E0EFCF17
:10229000AF92BF92CF92DF92EF92FF920F931F9374
:1022A000CF93DF9300D000D000D0CDB7DEB7082F9A
:1022B0006B0180E591E00E9409029E012F5F3F4F74
:1022C0007901590110E063E070E0812F0E94BD0E9A
:1022D000F50181935F01882341F11F5F143099F765
:1022E00010E0F70181917F018D31D1F08831C1F08B
:1022F0008A518230A8F01F5F143099F7812F2696FB
:102300000FB6F894DEBF0FBECDBFDF91CF911F9106
:102310000F91FF90EF90DF90CF90BF90AF90089516
:1023200060E170E0812F0E94DA0EE12EF12C83EE45
:1023300093E00197F1F7402F70E060E0812F0E9459
:10234000510B4FEF62E070E0812F0E94510BB601FC
:10235000CD2889F48091070190910801019681159B
:10236000F0EC9F0798F1909308018093070160912A
:10237000070170910801812F0E943C0B61E070E021
:10238000812F0E94DA0E27E02E9DC0012F9D900D17
:1023900011249C012E593C4F7901F90111821082C0
:1023A00022E030E0AE014B5F5F4F68E270E0812FCA
:1023B0000E941F108D819E81982789279827F701F9
:1023C0009383828316821582148298CF80E090ECEA
:1023D000CACFCF92DF92EF92FF921F93CF93DF93FA
:1023E000EC017B016A018C85843048F40E940F0F58
:1023F000882319F08C850E94EA0E84E08C87F7010F
:1024000082819381A481B5810097A105B10551F422
:1024100090E080E0DF91CF911F91FF90EF90DF90EF
:10242000CF9008958F3F9F4FAF4FBF4F89F380915B
:102430007E03811103C084E08C87EACF70E060E006
:1024400081E20E944811182F8C87843008F780E5BC
:1024500091E00E940902A7014E5F5F4F24E030E047
:102460006CE070E0812F0E94160BB601812F0E9454
:10247000270B64E070E0812F0E94DA0E0E942B038C
:102480006B017C018C850E940F0F873109F18C3123
:10249000F9F0882309F4BCCF0E942B03AB01BC01E7
:1024A0004C195D096E097F098D859E85B0E0A0E01D
:1024B00084179507A607B70738F061E070E080E061
:1024C00090E00E94F902DECF8C850E94F60EB3CF19
:1024D00081E090E09FCF0F931F93CF93DF93EC01A8
:1024E0008B01888D843010F40E94F60E80917E035B
:1024F000811107C094E0988FDF91CF911F910F91C8
:102500000895B80182E00E944811888F843030F429
:102510001D870C871A8E198E81E0EECF80E0ECCFFC
:102520007F928F929F92AF92BF92CF92DF92EF9263
:10253000FF920F931F93CF93DF9300D0CDB7DEB7F9
:10254000782E8B014A01590122E030E0AE014F5F45
:102550005F4F64E270E00E941F10E980FA80FE2461
:10256000EF24FE24E00EF11E9701377040917E03A8
:10257000072D10E0433309F042C0085F1F4F102FB2
:102580000027110F110F110FC901800F911F473341
:10259000C9F1A9014A0D5B1D4130584098F160E036
:1025A00078E06B01C21AD30AA601B4010E94450A61
:1025B000A5014C195D09B4016C0D7D1DC8010E9477
:1025C000450AEA0CFB1CF982EA8222E030E0AE0107
:1025D0004F5F5F4F64E270E0872D0E94160B0F90F3
:1025E0000F90DF91CF911F910F91FF90EF90DF90AF
:1025F000CF90BF90AF909F908F907F900895005F95
:102600001F4FBDCFA501B401DACFEF92FF921F9308
:10261000CF93DF9300D0CDB7DEB7182F22E030E0A4
:10262000AE014F5F5F4F60E270E00E941F10E980D3
:10263000FA80FE24EF24FE2422E030E0AE014F5F5A
:102640005F4F60E270E0812F0E941F1089819A81A4
:10265000982789279827E816F90689F487E0189FB4
:10266000F0011124EE59FC4FF582E482C7010F906E
:102670000F90DF91CF911F91FF90EF9008957C0113
:10268000DBCF1F93CF93DF93182F80E591E00E945B
:102690000902812F0E940513EC0163E070E0812F95
:1026A0000E94BD0E873121F08C3111F0D0E0C0E0E6
:1026B000CE01DF91CF911F910895CF93DF93EC016D
:1026C0008C85843060F40E940F0F873111F08C31BB
:1026D00031F48C850E9441138115984088F3DF9175
:1026E000CF910895FC018485843010F40C9441133B
:1026F00090E080E008959F92AF92BF92CF92DF92D8
:10270000EF92FF920F931F93CF93DF938C015B01A6
:10271000942EE52EFC01C688D788F08C80E591E0E8
:102720000E9409028F2D0E940513C92DDE2D8C17E2
:102730009D0708F4EC019E01A501B6018F2D0E94B2
:102740009012F801868997898C0F9D1F978B868B35
:10275000CE01DF91CF911F910F91FF90EF90DF900D
:10276000CF90BF90AF909F9008958F929F92AF921D
:10277000BF92CF92DF92EF92FF920F931F93CF936E
:102780006C015B018A01FC01C485C430F0F57A015B
:102790004130584018F0E12C88E0F82E80E591E0B7
:1027A0000E9409028C2F0E9405134C0163E070E027
:1027B0008C2F0E94BD0E873111F08C3149F58E149B
:1027C0009F0460F380E591E00E9409029701A50152
:1027D00070E060E08C2F0E94901260E270E08C2F1D
:1027E0000E94DA0E62E070E08C2F0E94BD0E84FD24
:1027F00017C063E070E08C2F0E94BD0E81110BC0EA
:1028000081E090E0F6019383828310E000E010C045
:10281000F12CE12CD7CF80E591E00E940902E2CFB4
:1028200040E162E070E08C2F0E94510BEF2841F3F1
:10283000C801CF911F910F91FF90EF90DF90CF9043
:10284000BF90AF909F908F900895FF920F931F932A
:10285000CF93DF9300D0CDB7DEB7F82E22E030E083
:10286000AE014F5F5F4F66E270E00E941F1009816A
:102870001A8110270127102722E030E0AE014F5FB8
:102880005F4F66E270E08F2D0E941F1089819A8150
:102890009827892798270817190749F4C8010F9026
:1028A0000F90DF91CF911F910F91FF9008958C01B0
:1028B000E3CF1F93CF93DF93182F87E0189FE0019A
:1028C0001124CE59DC4F88819981009761F480E50D
:1028D00091E00E940902812F0E9425142E81821B03
:1028E000910999838883DF91CF911F910895FC010D
:1028F0008485843010F40C94591490E080E008959D
:102900004F925F927F928F929F92AF92BF92CF929F
:10291000DF92EF92FF920F931F93CF93DF9300D03C
:10292000CDB7DEB7782E6B014A01A82EB12C27E077
:10293000829FC0011124FC01EE59FC4F7F010081F0
:10294000118180E591E00E9409020815190554F4EF
:10295000872D0E942514F70126818C01021B110985
:10296000118300830115110529F563E070E0872DBF
:102970000E94BD0E843159F0882349F001E010E037
:102980008C3111F410E000E0119501951109C80196
:102990000F900F90DF91CF911F910F91FF90EF90CB
:1029A000DF90CF90BF90AF909F908F907F905F907F
:1029B0004F900895801691060CF4840187E08A9D5B
:1029C000F0018B9DF00D1124EE59FC4FE280F38055
:1029D000C114D10451F12701F7E05F22872D0E9435
:1029E000080B840D951D20917E03273309F453C0F5
:1029F0009801240D351D2130384008F44CC020E0EA
:102A000038E0490184189508A401B6010E94320EED
:102A10002601480C591C6801C818D908872D0E9446
:102A2000080BA601B2010E94320EE00EF11E87E0F3
:102A30008A9DF0018B9DF00D1124EE59FC4FF3821D
:102A4000E28220813181201B310B318320838681FA
:102A5000800F912F911D8A3F910510F4232BF1F4E3
:102A600087E08A9DF0018B9DF00D1124EE59FC4FFB
:102A70001682F982EA8222E030E0AE014F5F5F4FBA
:102A800068E270E0872D0E94160B60E470E0872DED
:102A90000E94DA0E7CCFA801B601C5CF868377CF1E
:102AA000CF93DF93FC01218D328D2115310529F45F
:102AB0008FEF9FEFDF91CF910895EC01808D42174A
:102AC000530708F0A9010E9480141816190684F70C
:102AD000298D3A8D281B390B3A8F298FEBCF0F9315
:102AE0001F93CF93DF931F92CDB7DEB7FC01218DEB
:102AF000328D232B41F48FEF9FEF0F90DF91CF9119
:102B00001F910F9108958C0141E050E0BE016F5F6D
:102B10007F4FFC01808D0E948014181619065CF707
:102B2000F801818D928D0197928F818F898190E03C
:102B3000E4CFCF93DF931F92CDB7DEB741E050E0F3
:102B4000BE016F5F7F4FFC0184850E9480141816C0
:102B5000190634F4898190E00F90DF91CF910895A8
:102B60008FEF9FEFF9CFFC018485843010F40C9433
:102B7000801490E080E008950F931F93CF93DF932C
:102B800000D0CDB7DEB7FC0124852430E0F48C0101
:102B900080E591E00E94090222E030E0AE014F5F43
:102BA0005F4F60E170E0F80184850E941F10898109
:102BB0009A819827892798270F900F90DF91CF91BE
:102BC0001F910F91089590E080E0F6CF0F931F932F
:102BD000CF93DF9300D0CDB7DEB7FC01248524303E
:102BE000E0F48C0180E591E00E94090222E030E0EF
:102BF000AE014F5F5F4F64E070E0F80184850E9492
:102C00001F1089819A819827892798270F900F9004
:102C1000DF91CF911F910F91089590E080E0F6CF62
:102C2000DC0187E991E08D939D9384E0FB010190A5
:102C30000D928A95E1F70895EF92FF920F931F93FB
:102C4000CF93DF9300D000D0CDB7DEB78C017B01EE
:102C5000FB0184858430A8F087E991E0F801918335
:102C600080831282138214821582C8010F900F9004
:102C70000F900F90DF91CF911F910F91FF90EF90E8
:102C8000089580E591E00E94090224E030E0AE0161
:102C90004F5F5F4F6CE070E0F70184850E941F106A
:102CA000BE016F5F7F4FC8010E941016DECF8F926A
:102CB0009F92AF92BF92CF92DF92EF92FF920F93CB
:102CC0001F93CF93DF93EC018B0149015A01A901B6
:102CD0000E9481057C01892BA1F48114910489F063
:102CE00088819981081B190B08151905C0F0A401EA
:102CF000B5010E94383388819981880E991E998286
:102D00008882C701DF91CF911F910F91FF90EF90C3
:102D1000DF90CF90BF90AF909F908F900895EE245A
:102D2000EA94FE2CEECF2F923F924F925F926F92D9
:102D30007F928F929F92AF92BF92CF92DF92EF924B
:102D4000FF920F931F93CF93DF9300D000D01F9279
:102D5000CDB7DEB77C016B01FB0101900020E9F7E4
:102D600031978F01061B170B0E94F5018D83882375
:102D700009F479C08091B7049091B804892B21F0AF
:102D80001092B8041092B704809063049090640489
:102D9000A0906504B0906604C7010E94200E2B012C
:102DA0003C01E091AF04F091B004B501A401809121
:102DB000AD049091AE040995E0909904F0909A04C6
:102DC00020909D0430909E043C822B82E20CF31CE8
:102DD000C20102964801B12CA12C880E991EA11C9B
:102DE000B11CAE014F5F5F4FC501B4010E943F05AA
:102DF000029679F1EB81FC81EE15FF0509F464C0C0
:102E000080E380838B819C8101969C838B83A501C9
:102E10009401B701CE0103960E946004009789F4E3
:102E2000A3019201B701CE0103960E9457160097A5
:102E300041F48B819C81821993090E945E01009765
:102E400059F09093BC048093BB040E94E8011D825A
:102E50000AC089EF9FEFF5CF01151105E9F4109233
:102E6000BC041092BB048D810F900F900F900F90B7
:102E70000F90DF91CF911F910F91FF90EF90DF9016
:102E8000CF90BF90AF909F908F907F906F905F900A
:102E90004F903F902F900895B801C6010E940901FC
:102EA000009779F6409194045091950460919604AE
:102EB00070919704E091AF04F091B0048091AB045D
:102EC0009091AC040995CBCF8FEF9FEFBACFCF9302
:102ED0000E94430C909106018917F1F00E94430C67
:102EE000C82F809306010E94060CEC2FF0E0EE0F35
:102EF000FF1FED5BFE4F808191810E94D60DE09116
:102F00000601F0E0EE0FFF1FED5BFE4F6081718167
:102F100084EB91E00E94931680E10E944C02209184
:102F20000A0330910B038217930721F180E10E947D
:102F30004C0290930B0380930A0385EC90E00E946F
:102F400025048FEB91E00E94160E80910A03909168
:102F50000B030E94540D80910601813059F4809139
:102F60000A0390910B03019729F480914903811181
:102F70000E94ED0D82E10E944C0220910C033091E1
:102F80000D038217930729F182E10E944C0290936E
:102F90000D0380930C0382ED91E00E94160E8FEBDF
:102FA00091E00E94160E80910C0390910D030E94F7
:102FB000540D60910C0370910D0382ED91E00E941D
:102FC000931680910C0390910D03019711F40E94C8
:102FD000ED0D82E00E944C0220911003309111030C
:102FE0008217930719F182E00E944C02909311031B
:102FF000809310038AED91E00E94160E8FEB91E012
:103000000E94160E80911003909111030E94540D9E
:10301000809110039091110362EB71E0892B11F004
:1030200060EB71E08AED91E00E94931683E10E94CB
:103030004C0220910E0330910F038217930721F168
:1030400083E10E944C0290930F0380930E0381EE64
:1030500091E00E94160E8FEB91E00E94160E809177
:103060000E0390910F030E94540D80910E039091D6
:103070000F0362EB71E0892B11F060EB71E081EEE0
:1030800091E0CF910C949316CF9108952F923F9297
:103090004F925F926F927F928F929F92AF92BF9268
:1030A000CF92DF92EF92FF920F931F93CF93DF9314
:1030B000CDB7DEB761970FB6F894DEBF0FBECDBFB8
:1030C0008C010E94F5018D87882309F450C1C090BE
:1030D0006304D0906404E0906504F0906604C80135
:1030E0000E94200E6E877F87888B998BE091AF04BA
:1030F000F091B004B701A6018091AD049091AE04A7
:103100000995E0909204F09093042FEFE216F206F6
:1031100009F086C081E090E090939304809392043C
:10312000EE24E394F12CC0909904D0909A0420905E
:103130009D0430909E043E822D82C20CD31C8E854D
:103140009F850396B0E0A0E02C013D0122E0420EF5
:10315000511C611C711CAE014F5F5F4FC301B20176
:103160000E943F05029609F463C0ED81FE81EC15D3
:10317000FD0509F416C182E880838D819E81019648
:103180009E838D83A3019201B601CE0105960E9414
:1031900060048C01892B09F0DEC0A701B601CE01C5
:1031A00005960E9481058C01892B09F0D4C02E85DB
:1031B0003F8548895989B601CE0105960E94571668
:1031C0008C01892B09F0C7C0ED81FE81EC15FD054E
:1031D00009F4E7C010828D819E81019682199309BE
:1031E0000E945E018C01892B09F0B5C01A861986F0
:1031F00049E050E070E060E0CE0109960E946E0662
:103200008C01892B09F0A7C089859A850997F9F067
:103210000FB6F894DEBF0FBECDBF87EF9FEF0FC094
:103220004FEFE41AF40AF0929304E09292047BCFF9
:103230000FB6F894DEBF0FBECDBF89EF9FEF90931E
:10324000BC048093BB040E94E8011D8690C080915D
:103250009B0490919C04C0909F04D090A004DE82B7
:10326000CD82C80ED91EAE01445F5F4FB601CE01BC
:1032700005960E946B058C01892B09F06CC08C852A
:10328000807F803929F6AE014F5F5F4FB601CE01D6
:1032900005960E94D5048C01892B09F05CC08981B8
:1032A0009A81AB81BC810397A105B10540F40FB6AB
:1032B000F894DEBF0FBECDBF88EF9FEFC0CFAE0149
:1032C000495F5F4FB601CE0105960E94EB058C0168
:1032D000892B09F040C089819A810397B4F490E06A
:1032E00080E02F8138852E153F0509F091CF30E021
:1032F00020E0281739077CF521E030E040E884160B
:103300009104B9F705EF1FEF26C0AE01455F5F4F8F
:10331000B601CE0105960E946B050097D9F48B8506
:1033200088248394912C813061F0912C812C813000
:1033300040F020E8822E912C823019F482E0882E11
:10334000912C89819A8104971CF481E090E0C9CF87
:1033500084EF9FEF8C010FB6F894DEBF0FBECDBF98
:103360001093BC040093BB04012B09F06CCF8D8536
:1033700061960FB6F894DEBF0FBECDBFDF91CF913F
:103380001F910F91FF90EF90DF90CF90BF90AF9083
:103390009F908F907F906F905F904F903F902F9075
:1033A00008950FEF1FEFD7CF0F931F93CF93DF93A6
:1033B000CDB7DEB728970FB6F894DEBF0FBECDBFEE
:1033C0008C01D80159964D915C915A974115510540
:1033D00051F0ED91FC91048CF58DE02D70E060E0F2
:1033E000C8010995EECFF801808D0E945914892BF0
:1033F000B1F148E050E0BE016F5F7F4FD8015896B1
:103400008C910E94801418161906F4F4D801509675
:1034100084E0FE01319601900D928A95E1F78D814D
:1034200090E0982F88272E81820F911DF801958BAF
:10343000848B8F81282F30E0322F22278885820FBE
:10344000932F911D928F818F28960FB6F894DEBF2F
:103450000FBECDBFDF91CF911F910F91089590E0E6
:1034600080E0F2CF4F925F926F927F928F929F9205
:10347000AF92BF92CF92DF92EF92FF920F931F9382
:10348000CF93DF93CDB7DEB763970FB6F894DEBF67
:103490000FBECDBF7C016B013A01FB0120E090E043
:1034A00080E06AE03191332309F461C040ED430FBD
:1034B0004A3008F04DC0689FA001699F500D11244B
:1034C000CA01C097830F911D37FD9A958F3F9105D3
:1034D00049F340F3F7014281538164817581809102
:1034E0004E0490914F04A0915004B091510448179C
:1034F00059076A077B0709F40DC28701085F1F4F50
:103500000E942B036F7077277C5FC8010E946B12AB
:10351000813009F004C287E991E09A838983F70139
:1035200082819381A481B5818B839C83AD83BE838B
:1035300045E350E0BE016F5F7F4FC8010E94AD0BB5
:10354000892BA9F5D12CC12CC8010E94020F17C0EC
:103550003E3209F0BFCF233009F4BCCFD301A20F14
:10356000B11D12968C932F5F90E080E09BCF2330AB
:1035700009F0B0CFF3018583CC24C394D12CC601CC
:1035800063960FB6F894DEBF0FBECDBFDF91CF912B
:103590001F910F91FF90EF90DF90CF90BF90AF9071
:1035A0009F908F907F906F905F904F9008950E94B2
:1035B0002B03F7017783668342E050E0B7016A5F2F
:1035C0007F4FC8010E947B1381E090E09A8389833A
:1035D00042E050E0BE016F5F7F4FC8010E947B1345
:1035E00080E091E09A83898342E050E0BE016F5F02
:1035F0007F4FC8010E947B131A82198242E050E07B
:10360000BE016F5F7F4FC8010E947B1342E050E014
:10361000BE016F5F7F4FC8010E947B1342E050E004
:10362000BE016F5F7F4FC8010E947B135601F601F8
:103630008081882301F16501F60181912F018823A2
:1036400011F08E32B1F446018A189B08181419043F
:1036500074F48D8641E050E0BE01635F7F4FC80186
:103660000E947B13A401B501C8010E947B13520183
:10367000DECF6201E1CF1D8641E050E0BE01635F15
:103680007F4FC8010E947B13C12CDD24D394DA82C2
:10369000C98242E050E0BE016F5F7F4FC8010E94C7
:1036A0007B13DA82C98242E050E0BE016F5F7F4F38
:1036B000C8010E947B13C8010E94760F892B09F470
:1036C00041CFF3E0AF2EB12C230122E0420E511C7A
:1036D000D4C0F7014281538164817581808D918DC1
:1036E000A28DB38D481759076A077B0709F008C1F7
:1036F000848D958DC59709F003C181A192A15DEFDD
:10370000C52EDD24DA940C970CF4ADC04CE050E0EB
:10371000BE016F5F7F4FC8010E9450158B819C8155
:103720009827892798279A8B898BF701468157819B
:1037300029813A814217530709F0E7C097FFE5C096
:103740008F7092703BEFC32EDD24DA94892B09F041
:103750008AC06F8078847624672476242AEFC22E6C
:10376000DD24DA946114710409F47DC0D12CC12CDC
:103770008D819E81982789279827C816D906F8F445
:1037800041E050E0BE01635F7F4FC8010E945015C9
:103790004D85442331F050E070E060E0C8010E94A4
:1037A00050158D858111ECCF44E050E070E060E071
:1037B000C8010E945015FFEFCF1ADF0AD9CF912C14
:1037C000812C41E050E0BE016D5E7F4FC8010E9438
:1037D00050154B89842F807C09F06CC0442331F054
:1037E00050E070E060E0C8010E9450158B898111A3
:1037F000E8CF42E050E0BE01615F7F4FC8010E9408
:10380000501542E050E0BE01635F7F4FC8010E9447
:10381000501544E050E070E060E0C8010E9450158F
:1038200042E050E0BE016F5E7F4FC8010E9450151C
:103830008F85988949895A898115914009F043C03B
:10384000CD84DE84DC24CD24DC2481E0C816D104C0
:10385000D1F54115544009F04AC044E050E0B201AE
:10386000C8010E94501521E0A21AB10809F46CCEDB
:10387000FFEFCF16DF0609F067CE0E942B033B0156
:103880004C01C8010E94D419181619060CF421CF56
:103890000E942B03661977098809990969387341D1
:1038A0008105910548F562E370E080E090E00E94B8
:1038B000F902E7CF41E050E070E060E0C8010E940B
:1038C00050151B8A93CF54274527542770E060E09A
:1038D000C8010E945015FFEF8F1A9F0A68147904DF
:1038E00009F06FCF96EFC92EDD24DA94BCCFE7EF55
:1038F000CE2EDD24DA94B7CFCC24CA94DC2CB3CFFF
:103900006EEFC62EDD24DA94AECF4CEFC42EDD244C
:10391000DA94A9CF8EEFC82EDD24DA9430CED12CE4
:10392000C12C2DCECF92DF92EF92FF920F931F9377
:10393000CF93DF93CDB7DEB7AF970FB6F894DEBF66
:103940000FBECDBF7C016A0107E911E01A8309832C
:103950001C861B8688EE93E0A0E0B0E08D879E87F2
:10396000AF87B88B8DE191E09A878987188F0F8B8D
:10397000198E1A8E1B8E1C8E84E089A31BA70AA7A2
:103980001CA61DA61EA61FA680914204909143046A
:10399000A0914404B09145048EA39FA3A8A7B9A702
:1039A0008B839C83AD83BE8318861F82AE01465DE8
:1039B0005F4FCE0101960E94321A81309105B1F419
:1039C000D701ED91FC910488F589E02D1DA30CA38E
:1039D0008CA59DA5AEA5BFA58EA39FA3A8A7B9A79B
:1039E000A601BE016C5D7F4FC7010995AF960FB66A
:1039F000F894DEBF0FBECDBFDF91CF911F910F9125
:103A0000FF90EF90DF90CF900895CF92DF92EF92EA
:103A1000FF920F931F93CF93DF93CDB7DEB7AF978E
:103A20000FB6F894DEBF0FBECDBF8C016B017A01DB
:103A300087E991E09A8389831B821C821D821E8202
:103A40001C861B8648EE53E060E070E04D875E8781
:103A50006F87788B2DE131E03A872987988F8F8B9C
:103A6000198E1A8E1B8E1C8E24E029A39BA78AA771
:103A70001CA61DA61EA61FA6D8011C968C918430DC
:103A800060F40E940F0F882321F0F80184850E94C2
:103A9000EA0E84E0D8011C968C93809142049091A8
:103AA0004304A0914404B09145048EA39FA3A8A70A
:103AB000B9A78B839C83AD83BE8318861F82AE011A
:103AC000465D5F4FB601CE0101960E94321A009703
:103AD000C1F0D801ED91FC910684F785E02D87E9CE
:103AE00091E09DA38CA38CA59DA5AEA5BFA58EA39B
:103AF0009FA3A8A7B9A7A701BE016C5D7F4FC8010E
:103B00000995AF960FB6F894DEBF0FBECDBFDF911B
:103B1000CF911F910F91FF90EF90DF90CF9008957C
:103B20007F928F929F92AF92BF92CF92DF92EF924D
:103B3000FF920F931F93CF93DF93CDB7DEB7A69776
:103B40000FB6F894DEBF0FBECDBF8C01762E942E3B
:103B5000852E20E2A22ECE0101967C01DC01EA2D09
:103B60001D92EA95E9F76801F3E4CF0ED11C87E9CD
:103B700091E09AA389A38FEF8BA38CA38DA38EA32F
:103B800043E450E0BE016F5D7F4FC6010E94AD0B64
:103B9000019609F4BFC081E089838A8386E0B82E4C
:103BA000BB821C82D80114966D917D918D919C9160
:103BB00017970E9422316D837E838F839887898631
:103BC0009A8680E890E09C878B874CE150E0B701B3
:103BD000C6010E947B13FE0137968AE1DF011D9228
:103BE0008A95E9F74801B8E08B0E911CF401D701E2
:103BF00001900D92BA94E1F740E150E0B701C6019F
:103C00000E947B13F7011192AA94E9F796E0A92E7E
:103C1000B12C40E250E0B701C6010E947B13F1E0F5
:103C2000AF1AB108B1F783E6898392E89A8393E5E6
:103C30009B838C8385E38D8381E08E837F829DE3EC
:103C4000988797E099878A8786E0F401DE011B96C2
:103C500001900D928A95E1F78CE0898B8A8B68EE52
:103C600071E0CE0143960E945133D8011B966C91AE
:103C7000CE0149960E940C02F8016485CE014B9654
:103C80000E940C02D8011D966C91CE014D960E94A7
:103C90000C024EE150E0B701C6010E947B13B3E075
:103CA0007B121EC082E3898384E08A83F8019685B3
:103CB0009B8397859C8390899D8391899E8396E3BE
:103CC0009F838887828D8987838D8A87848D8B8760
:103CD000858D8C874CE050E0B701C6010E947B13B4
:103CE00087E3898386E08A8391E09B8393E09C83CA
:103CF0008D838FE08E838AE38F838BE388878FEFBA
:103D0000898749E050E0B701C6010E947B13C601D4
:103D10000E94760FA6960FB6F894DEBF0FBECDBFF9
:103D2000DF91CF911F910F91FF90EF90DF90CF9097
:103D3000BF90AF909F908F907F900895EF92FF92E9
:103D40000F931F93CF93DF93EC01198218821B828C
:103D50001A821D821C8261157105A9F17B01FB018C
:103D600001900020E9F731978F01061B170BB8016E
:103D70006F5F7F4F90E080E00E9454320097B9F06F
:103D8000998388831B830A832C813D81232B11F423
:103D9000FC0110821D830C83B70188819981DF911A
:103DA000CF911F910F91FF90EF900C945133888128
:103DB0009981009711F00E94CB31198218821D82DF
:103DC0001C821B821A82DF91CF911F910F91FF906D
:103DD000EF9008954F925F926F927F928F929F9291
:103DE000AF92BF92CF92DF92EF92FF920F931F9309
:103DF000CF93DF93CDB7DEB769970FB6F894DEBFE8
:103E00000FBECDBF4B0129013A01AB8ABC8ACD8AD6
:103E1000DE8AEF8AF88E098FCDB6DEB60E891F894D
:103E2000A88CB98CC90101962DB73EB7281B390B58
:103E30000FB6F8943EBF0FBE2DBF8DB79EB701964B
:103E40007C01A201B3010E9438334E0C5F1CD201E9
:103E50001C920115110521F0F801EA0DFB1D1082DD
:103E6000D4011496ED91FC911597309739F1950195
:103E7000A801B7018D919C9109950FB6F894DEBE0B
:103E80000FBECDBE0FB6F894DEBE0FBECDBE699696
:103E90000FB6F894DEBF0FBECDBFDF91CF911F915B
:103EA0000F91FF90EF90DF90CF90BF90AF909F90D9
:103EB0008F907F906F905F904F900895F401828172
:103EC0009381892BD1F2B701CE0107960E949E1EE5
:103ED0006BE971E0CE010D960E949E1E0115110541
:103EE00009F1B801CE0101960E949E1E8D859E8526
:103EF000009769F169817A816115710531F14F850A
:103F000058892D813E8142175307F8F00E945133A2
:103F10008D819E819A8B898B1E821D82CE01019696
:103F20000E94CA0CD4011296ED91FC91BE01635F10
:103F30007F4FCE0107960995CE010D960E94CA0CBF
:103F4000CE0107960E94CA0C98CF0E94CB3189817E
:103F50009A819E878D878B819C81988B8F878D819D
:103F60009E819A8B898B1A8219821C821B82D4CFE4
:103F70003F924F925F926F927F928F929F92AF92F9
:103F8000BF92CF92DF92EF92FF920F931F93CF9346
:103F9000DF93CDB7DEB7EA970FB6F894DEBF0FBE5A
:103FA000CDBF7C012A013B0169010E942B034B011B
:103FB0005C0187010D5B1F4FC8010E94D4191816C0
:103FC00019069CF00E942B03681979098A099B093C
:103FD000461657066806790608F466C162E370E083
:103FE00080E090E00E94F902E7CF42E250E0BE019B
:103FF0006F5F7F4FC8010E94501589818230D1F0D8
:10400000312C832DEA960FB6F894DEBF0FBECDBFDC
:10401000DF91CF911F910F91FF90EF90DF90CF90A4
:10402000BF90AF909F908F907F906F905F904F90D8
:104030003F900895F801848995898334910501F7AB
:104040006D817E818F8198850E9422314B015C01B8
:10405000F60180829182A282B38246E050E0B701ED
:10406000685F7F4FCE014D960E942B33892B41F61E
:10407000F70180819181A281B38188169906AA06F1
:10408000BB0608F4BDCF84819581A681B7818815D0
:104090009905AA05BB0508F4B3CF89899A89AB892C
:1040A000BC8986879787A08BB18B4EEC50E070E07F
:1040B00060E0C8010E945015312CC701829698AB70
:1040C0008FA7F701B696FAABE9AB08969CAB8BAB22
:1040D00067019AE1C90ED11CBD96FEABEDABC701DD
:1040E000429698AF8FABFD97FAAFE9AF4701FEE17B
:1040F0008F0E911CF801818D928D181619060CF007
:1041000080CFC8010E946F158333910509F4B2C0B6
:1041100014F58130910509F464C044F4892B51F3FE
:10412000C8010E946F15AC01552775C083309105F9
:1041300009F462C00697A1F7C8010E946F15B82E56
:1041400044E050E0B401C8010E945015EB2DE4504A
:10415000FF0BAF0160C08A33910509F45FC084F59D
:1041600085339105B1F1C697D9F6C8010E946F1544
:104170005C01B601CE0189960E9410168BA59CA504
:10418000ADA5BEA5892B8A2B8B2BB1F0EDA9FEA97D
:104190004080518062807380B601CE0183960E9478
:1041A00010168DA19EA1AFA1B8A5A501481659066C
:1041B0006A067B0609F0B8CF44E050E0B60118C0AB
:1041C0008B33910509F440C08F3F910509F492CFDC
:1041D000A7CFC8010E946F15C8010E946F15382E25
:1041E00089CFC8010E946F1544E050E06FA978ADF7
:1041F000C8010E9450157ECFC8010E946F15B82ECD
:1042000044E050E069AD7AADC8010E9450158B2D95
:104210008450990BAC0170E060E0EACFC8010E94C5
:104220006F1544E050E069A97AA9C8010E945015B1
:10423000F70166A177A180A591A50E94223166A30E
:1042400077A380A791A756CFC8010E946F1544E0BD
:1042500050E06BA97CA9C8010E945015F70162A526
:1042600073A584A595A50E94223162A773A784A790
:1042700095A740CFC8010E946F1544E050E06FA59C
:1042800078A9C8010E945015F70162A173A184A109
:1042900095A10E94223162A373A384A395A366A76C
:1042A00077A780AB91AB26CF33243A94AACE2F9236
:1042B0003F924F925F926F927F928F929F92AF92B6
:1042C000BF92CF92DF92EF92FF920F931F93CF9303
:1042D000DF9300D000D000D0CDB7DEB78C010E94B4
:1042E0001A302FEC37E040E050E00E948830DC01CB
:1042F000CB010196A11DB11DF80184839583A6838E
:10430000B78380839183A283B3835801F3E4AF0E14
:10431000B11CC5010E94020F64E470E0C5010E9457
:104320006B12882309F445C10E942B032B013C0129
:10433000480182E4880E911C48EEC42E43E0D42E3E
:10434000E12CF12C52E0252E1E821D82D4018C918D
:104350008330B1F1811166C0F80184819581A68115
:10436000B7810196A11DB11D84839583A683B78370
:104370000E942B036419750986099709A701960104
:104380000E94F130A90161E0C8010E94901D81E006
:10439000D4018C938D819E810197C1F20E942B03E1
:1043A0006419750986099709D801D6962D913D9112
:1043B0004D915C91D997261737074807590720F682
:1043C000C5010E94020FF80184819581A681B78101
:1043D0000196A11DB11D84839583A683B7830E9496
:1043E0002B03F801FE9660837183828393838D8112
:1043F0009E8126960FB6F894DEBF0FBECDBFDF912B
:10440000CF911F910F91FF90EF90DF90CF90BF90D1
:10441000AF909F908F907F906F905F904F903F9064
:104420002F9008958430F1F4F80184819581A6815C
:10443000B7810196A11DB11D84839583A683B7839F
:104440000E942B036419750986099709A701960133
:104450000E94F130A90163E0C8010E94901DD401BF
:104460002C9298CF813051F5F80142AD53AD64AD37
:1044700075AD9E012F5F3F4FC8010E94B81F382EB7
:10448000F2E08F1390C089819A81AB81BC81F801E1
:1044900084839583A683B7830E942B0364197509CF
:1044A00086099709A70196010E94F130A90163E0EE
:1044B000C8010E94901DD4013C926CCF823009F05B
:1044C00069CFF80142AD53AD64AD75AD9E012F5F6C
:1044D0003F4FC8010E94B81F382EF5E08F135DC012
:1044E000E3E0D401EC93F80182A193A1A4A1B5A1CA
:1044F000892B8A2B8B2B41F484E893E0A0E0B0E079
:1045000082A393A3A4A3B5A3F80186A197A1A0A514
:10451000B1A5892B8A2B8B2B61F482A193A1A4A135
:10452000B5A1B695A7959795879586A397A3A0A7BC
:10453000B1A7F80182A593A5A4A5B5A5892B8A2BBF
:104540008B2BA9F482A193A1A4A1B5A1AC01BD01BB
:1045500023E076956795579547952A95D1F7841B63
:10456000950BA60BB70B82A793A7A4A7B5A7F80135
:1045700086A197A1A0A5B1A586A797A7A0ABB1AB2F
:1045800082A593A5A4A5B5A582AB93ABA4ABB5AB0F
:1045900081E090E09E838D83FDCE96E0891303C079
:1045A000D4011C92F7CEBFEF3B12F4CEF40110827F
:1045B000F1CE1E821D821BCF0F931F93CF93DF93EB
:1045C000FB01248135812830310540F084E890E0FA
:1045D000DF91CF911F910F910C94E30C8B01FC01A3
:1045E000C481D581209771F410921203F801C4811F
:1045F000D5812097B9F410922603DF91CF911F91B6
:104600000F910895C331D10510F0C3E1D0E060816E
:104610007181AE0182E193E00E945833CE5EDC4F9F
:104620001882E4CFC730D10510F0C7E0D0E0F80120
:1046300060817181AE0186E293E00E945833CA5DC9
:10464000DC4F1882DACF2F923F924F925F926F9297
:104650007F928F929F92AF92BF92CF92DF92EF9212
:10466000FF920F931F93CF93DF93CDB7DEB7A09741
:104670000FB6F894DEBF0FBECDBF87E790E00E9473
:1046800025040E94F501882361F140916304509153
:1046900064046091650470916604E091AF04F09148
:1046A000B0048091AD049091AE0409956091990495
:1046B00070919A042EE030E0AE014F5F5F4F809121
:1046C0009D0490919E040E94A004009721F489818A
:1046D0009A810E945E019093BC048093BB040E9467
:1046E000E8010091A2021091A3020115110509F43D
:1046F000D0C00E942B034B015C0178012EE3E20E37
:10470000F11CF70180819181A281B381A5019401FF
:10471000281B390B4A0B5B0BCA01B901683E33E019
:10472000730781059105A0F128EE33E040E050E0E9
:104730000E94F130861A970AA80AB90AD7018D9209
:104740009D92AD92BC921397F80186A597A5A0A95A
:10475000B1A969017A01CC0CDD1CEE1CFF1C8C1583
:104760009D05AE05BF0508F0CFC116A617A610AA75
:1047700011AAF80182A993A9A4A9B5A98C159D0530
:10478000AE05BF0508F0C9C112AA13AA14AA15AA3A
:10479000F80186A597A5A0A9B1A9892B8A2B8B2BF7
:1047A00009F0C4C1EE5BFF4F8081833009F0BEC1C8
:1047B00084E08083C8010E9457210196D801D296D7
:1047C0004D915D916D917C91D597452B462B472B53
:1047D000A1F4F801EE5BFF4F2081233011F021118D
:1047E0000CC01082F8013E9684E1DF011D928A958B
:1047F000E9F7C8010E94572103968230910519F00C
:10480000049709F046C080E591E00E9409020091FA
:10481000A2021091A302B801625F7F4FCE01019600
:104820000E941016CE0103960E94A50BB8016A5E85
:104830007F4FCE0101960E94101644E050E0BE0169
:104840006D5F7F4F81E090E00E94450AB8016E5E87
:104850007F4FCE0101960E94101644E050E0BE0149
:104860006D5F7F4F85E090E00E94450AB801625E6F
:104870007F4FCE0101960E9410168B819C81AD81E5
:10488000BE818093420490934304A0934404B09368
:10489000450483EC94E090936904809368048091CC
:1048A00058049091590420915C0430915D0440912A
:1048B0005A0450915B0460915E0470915F04109201
:1048C0009304109292041092940410929504109202
:1048D0009604109297041092980470939E0460932B
:1048E0009D0450939A04409399043093A00420931C
:1048F0009F0490939C0480939B041092A2041092B6
:10490000A1041092A4041092A3041092A604109281
:10491000A5041092A8041092A7041092AA04109261
:10492000A9041092B3041092B5041092B4048EE757
:1049300094E09093AC048093AB0488E894E0909367
:10494000AE048093AD0489EF99E09093B004809316
:10495000AF048DEB99E09093B2048093B10440E0F2
:1049600050E0BA018EE794E00E94F909E091AF04AB
:10497000F091B00440E050E0BA018091AD04909114
:10498000AE0409958CE794E09093A6048093A50467
:1049900080E399E09093A8048093A70487E199E0CD
:1049A0009093AA048093A90486E794E09093A404CA
:1049B0008093A3048AEE9EE19093A2048093A104C5
:1049C00080916A0490916B04009711F00E94CB31A2
:1049D0008FEE91E00E94113390936B0480936A04F0
:1049E0008BE597E0909373048093720488E594E0DC
:1049F00090937704809376048CED92E290937904FF
:104A00008093780410927B0410927A040E94A50C83
:104A10008BE090E00E942F318C019093750480937D
:104A200074048BE0F80111928A95E9F78BEF91E01D
:104A30000E9411330E94200ED8016D937D938D93B7
:104A40009C93139785E092E00E9411330E94200E00
:104A5000F801678370878187928781E0868315825A
:104A600014828EE190E0909361048093600488E268
:104A700090E0A0E0B0E08093630490936404A0937E
:104A80006504B09366042BE030E03F8F2E8F0E94C8
:104A9000F50181110E94E8018091680490916904F8
:104AA00090937D0480937C0460916A0470916B0400
:104AB0004091720450917304DC01ED91FC916115F9
:104AC0007105B9F10088F189E02D099518161906CC
:104AD0000CF446C08DEF9FEF9093BC048093BB0411
:104AE0002E8D3F8D215031093F8F2E8F232B09F4BE
:104AF00051C285E790E00E94250460ED77E080E0F8
:104B000090E00E94F902C3CF821B930BA40BB50B5C
:104B100086A797A7A0ABB1AB2CCE821B930BA40B9F
:104B2000B50B82AB93ABA4ABB5AB32CE90E080E0DB
:104B300045CE0684F785E02D27E931E03A832983C5
:104B400000916E0410916F042091700430917104F3
:104B50000B831C832D833E83BE016F5F7F4FB5CFD8
:104B600080906004909061043091620438A38DE0DD
:104B700092E00E94200E69837A838B839C83462E69
:104B8000572E8DE092E00E94200E688779878A87F1
:104B90009B87A62EB72E86E192E00E94200E6C879E
:104BA0007D878E879F87C62ED72EE0907404F09065
:104BB00075044091630450916404609165047091A0
:104BC0006604E091AF04F091B0048091AD0490913F
:104BD000AE0409959401A8EEB3E00E941331AB0135
:104BE000BC01409394045093950460939604709391
:104BF0009704E091AF04F091B0048091AB049091E0
:104C0000AC040995109298040091990410919A04AB
:104C100020909D0430909E04388E2F8A020D131D23
:104C200042E0440E511C712C612C5AE0450E511C7F
:104C3000611C711CE114F10471F0D7018D919C91FC
:104C4000119717962D913C91820F931F0496480E51
:104C5000591E611C711CA114B10419F4C114D104B2
:104C600079F0C5010296480E591E611C711CC114D1
:104C7000D10431F0C6010296480E591E611C711C08
:104C8000AE014D5E5F4FC301B2010E943F05029627
:104C900009F446C1EF89F88DE017F10709F4BEC1A8
:104CA00080E180838F89988D0196988F8F8BA301E7
:104CB0009201B801CE0147960E946004009709F066
:104CC0002BC180E292E00E94200E9B01AC01B80152
:104CD000CE0147960E945716009709F01DC1EF8933
:104CE000F88DE017F10709F499C184E08083EF891A
:104CF000F88D9F012F5F3F4F388F2F8B88A1482F52
:104D000050E0440F551FE114F10489F0D7011496C7
:104D10008C911497880F880F880F4460842B8F7DA7
:104D200016964C91B0E24B9FA0011124482BA11480
:104D3000B10419F4C114D10429F0C114D10409F04B
:104D4000CEC040682017310709F468C141838F89BC
:104D5000988D0196988F8F8BA401B801CE0147964C
:104D60000E948105009709F0D7C029813A814B81C3
:104D70005C81B801CE0147960E945716009709F052
:104D8000CBC0E114F10499F1F70120813181428116
:104D90005381B801CE0147960E945716009709F03B
:104DA000BBC0D70117964D915C91B801CE014796D3
:104DB0000E948105009709F0AFC0F70187809084B9
:104DC00081149104A1F08F89988D9801281B390BCB
:104DD0002815390508F422C161857285A4010E9455
:104DE00038338F89988D880E991E988E8F8AAB28BC
:104DF00009F087C0C114D10409F083C08F89988D50
:104E0000821993090E945E01009709F085C01A8EED
:104E1000198E42E050E070E060E0CE0149960E94B9
:104E20006E06009709F078C0898D9A8D029709F077
:104E3000A6C080919B0490919C0400919F041091C6
:104E4000A004188F0F8B080F191FAE01435E5F4F30
:104E5000B801CE0147960E946B05009709F05CC02F
:104E60008D8D807F803209F08AC0AE014D5E5F4F2C
:104E7000B801CE0147960E94D504009709F04CC0B6
:104E80008B899C89AD89BE890297A105B10509F07E
:104E900070C0AE01445E5F4FB801CE0147960E94DC
:104EA0006B050097C9F5AE01455E5F4FB801CE01B5
:104EB00047960E946B05009779F54C8D41702B8DBC
:104EC000223009F44DC0F0F5222309F443C021300B
:104ED00009F443C026E030E086EF9FEF26C0406C27
:104EE00031CFCD2809F48ACF2C853D854E855F854D
:104EF000B801CE0147960E945716009709F47ECF5D
:104F00000BC0288539854A855B85B801CE01479657
:104F10000E945716009729F340E026E030E005C0D4
:104F200040E026E030E089EF9FEF9093BC0480934F
:104F3000BB043093BA042093B904892B31F10E9449
:104F4000E801CECD243091F070F0253019F625E03F
:104F500030E0C2CF30E020E0E8CF21E030E0BCCF4D
:104F600022E030E0B9CF23E030E0B6CF24E030E0FB
:104F7000B3CF40E026E030E088EF9FEFD6CF40E0AF
:104F800026E030E087EF9FEFD0CF4093670481E0C9
:104F90008093B6040E94F5018823D9F10E942B0367
:104FA00060932E0370932F0380933003909331030B
:104FB0008EE690E00E9425048FEE91E00E94D60DCF
:104FC00085E292E00E94461889E292E00E9446182B
:104FD0008FE292E00E94461887E392E00E94461812
:104FE000A0960FB6F894DEBF0FBECDBFDF91CF9174
:104FF0001F910F91FF90EF90DF90CF90BF90AF90F7
:105000009F908F907F906F905F904F903F902F90E8
:10501000089588E690E00E94E30CE2CF8FEF9FEFC7
:105020007BCF1F920F920FB60F9211242F933F93B5
:105030008F939F93AF93BF9380915A0390915B039B
:10504000A0915C03B0915D033091590323E0230FDD
:105050002D3758F50196A11DB11D2093590380935A
:105060005A0390935B03A0935C03B0935D0380911C
:105070005E0390915F03A0916003B091610301967C
:10508000A11DB11D80935E0390935F03A093600305
:10509000B0936103BF91AF919F918F913F912F91F9
:1050A0000F900FBE0F901F90189526E8230F0296C1
:1050B000A11DB11DD2CF1F920F920FB60F921124D6
:1050C0002F933F934F935F936F937F938F939F9310
:1050D000AF93BF93EF93FF938FE793E00E94B603E4
:1050E000FF91EF91BF91AF919F918F917F916F91C0
:1050F0005F914F913F912F910F900FBE0F901F9096
:1051000018951F920F920FB60F9211242F938F9321
:105110009F93EF93FF93E0918F03F0919003808131
:10512000E0919503F091960382FD1BC090818091E0
:1051300098038F5F8F7320919903821741F0E0915C
:105140009803F0E0E158FC4F958F80939803FF910E
:10515000EF919F918F912F910F900FBE0F901F9005
:1051600018958081F4CFCF93DF93EFE7F3E01382BC
:10517000128248EE53E060E070E04483558366831A
:10518000778383E591E09183808385EC90E0958738
:10519000848784EC90E09787868780EC90E0918B01
:1051A000808B81EC90E0938B828B82EC90E0958BEE
:1051B000848B86EC90E0978B868B118E128E138EEB
:1051C000148EECE1F4E087E991E091838083128210
:1051D000138214821582E2E2F4E0918380831282CA
:1051E000138214821582E8E2F4E0918380831282B4
:1051F000138214821582EEE2F4E09183808312829E
:10520000138214821582E4E3F4E091838083128296
:10521000138214821582EAE3F4E091838083128280
:10522000138214821582E6E4F4E091838083128273
:10523000138214821582E0E4F4E091838083128269
:10524000138214821582ECE4F4E09183808312824D
:10525000138214821582E2E5F4E091838083128246
:10526000138214821582E2EDF4E09183808312822E
:10527000138214821582E3ECF4E0138212824483D9
:1052800055836683778325E631E03183208324E0EC
:10529000248728EE33E036872587C8E5D4E02AE066
:1052A00030E03987288721E02A874B875C876D8724
:1052B0007E871F86198A188A1B8A1A8A9D8B8C8B77
:1052C0001E8A1F8A188E198E1B8E1A8E1D8E1C8E9A
:1052D0001F8E1E8E19A218A21BA21AA21DA21CA20A
:1052E0001EA21FA218A619A61AA61BA61CA61DA6BA
:1052F0001FA61EA618AA19AA1AAA1BAA1CAA1DAA8A
:105300001EAA1FAA19AE18AEE2E9F4E084E2DF019A
:105310001D928A95E9F71092B6041092B804109283
:10532000B7041092BA041092B9041092BC041092FF
:10533000BB041092BD041092BE041092BF041092E0
:10534000C0041092C2041092C10480E890E09983D6
:1053500088839B838A8381E890E00E942F319D831C
:105360008C8380E890E00E942F319F838E83DF91B1
:10537000CF910895CF93DF93CDB7DEB728970FB6BF
:10538000F894DEBF0FBECDBF789484B5826084BD33
:1053900084B5816084BD85B5826085BD85B5816039
:1053A00085BD80916E00816080936E0010928100B7
:1053B0008091810082608093810080918100816072
:1053C0008093810080918000816080938000809133
:1053D000B10084608093B1008091B00081608093BF
:1053E000B00080917A00846080937A0080917A0086
:1053F000826080937A0080917A00816080937A0045
:1054000080917A00806880937A001092C10062E0F7
:1054100083E00E94A30261E084E00E94A30260E0B6
:1054200084E00E94750261E085E00E94A30260E0D2
:1054300085E00E94750261E086E00E94A30260E0C0
:1054400086E00E94750261E087E00E94A30260E0AE
:1054500087E00E94750262E089E00E94A30262E098
:1054600088E00E94A30262E08EE00E94A30262E054
:105470008FE00E94A30262E080E10E94A30262E04A
:1054800081E10E94A30262E082E10E94A30262E045
:1054900082E00E94A30262E083E10E94A30282E014
:1054A0000E944C02909311038093100383E10E94A9
:1054B0004C0290930F0380930E0382E10E944C02F2
:1054C00090930D0380930C0380E10E944C02909313
:1054D0000B0380930A030E94430C809306010E94F1
:1054E000060C68EB7BE080E090E00E94F902E0911E
:1054F0008F03F091900382E08083E0918B03F09121
:105500008C031082E0918D03F0918E038FEC8083E9
:1055100010929703E0919303F091940386E08083C7
:10552000E0919103F0919203808180618083E0910A
:105530009103F0919203808188608083E0919103D0
:10554000F0919203808180688083E0919103F091D3
:10555000920380818F7D808389EC90E00E942504F6
:105560008091020381112AC01092EA021092E9028E
:1055700088EE93E0A0E0B0E08093EB029093EC0221
:10558000A093ED02B093EE028DE191E09093E802DA
:105590008093E70287E991E09093F6028093F50209
:1055A0001092F7021092F8021092F9021092FA0289
:1055B00084E08093FF0281E08093020384EA92E01A
:1055C0009093A3028093A2028091A1028111ADC0A9
:1055D00060E372E080E090E00E94F902DFB6F894A8
:1055E00007E811E06BE9E62E61E0F62E80919F025C
:1055F000811125C0F8018491F7019491E82FF0E022
:10560000EE0FFF1FE15AFE4FA591B4918C919823A4
:1056100021F461E08AE00E94750261E08AE00E9464
:10562000A3028CB580618CBD8CB580648CBD61E0BB
:105630008DE00E94A30261E08BE00E94A3028091B2
:105640009F028F5F80939F02DFBEF8010491E02FDD
:10565000F0E0EE0FFF1FE759FE4F85919491909374
:105660009E0280939D02F701E490E0929C0261E02B
:105670008AE00E94A3020E94290A80E591E00E942C
:10568000090284E380937E0380E80E94F50A0E9469
:10569000BA0F882309F4F5C088E00E94F50A0E9439
:1056A000A70F883009F0EDC080E10E94F50A0E9442
:1056B000A70F803109F0E5C080E00E94F50A0E9442
:1056C000A70F182F8111DDC041E050E0BE016F5FD0
:1056D0007F4F8FE190E00E94320E8981833009F084
:1056E000D0C080E48093A00242E06EE170E0812FA0
:1056F0000E94510B42E06FE170E0812F0E94510B3C
:105700001F5F143089F740E06EE170E0812F0E9446
:10571000510B40E06FE170E0812F0E94510B1F5F41
:10572000183089F781E08093A10280E591E00E9422
:10573000090246E050E060E071E089E090E00E94FC
:10574000450A87E991E09A8389831B821C821D8226
:105750001E82CE0103960E94A50B8091A202909119
:10576000A302DC0192961D921D921D921C929597A8
:10577000FC0116A217A210A611A69A961D921D92C0
:105780001D921C929D9740E65AEE60E070E046AB99
:1057900057AB60AF71AF40EA5FE060E070E0DA966F
:1057A0004D935D936D937C93DD973E9624E1DF01ED
:1057B0001D922A95E9F726E0E0E0F1E0DC01189679
:1057C00001900D922A95E1F7FC01EE5BFF4F1082EC
:1057D0000E945721019709F0BDC080E591E00E9429
:1057E00009020091A2021091A302B801625F7F4FEB
:1057F000CE0101960E941016CE0103960E94A50BC1
:10580000B8016A5E7F4FCE0101960E94101644E0F7
:1058100050E0BE016D5F7F4F81E090E00E94450A3D
:10582000B8016E5E7F4FCE0101960E94101644E0D3
:1058300050E0BE016D5F7F4F85E090E00E94450A19
:10584000B801625E7F4FCE0101960E9410168B81D7
:105850009C81AD81BE818093420490934304A093C8
:105860004404B09345040E94D4027F7380910701E1
:1058700090910801682779277093080160930701C8
:1058800069C087E380937E0380E80E94F50A0E9446
:10589000BA0F882329F188E00E94F50A0E94A70F19
:1058A0008830F1F480E10E94F50A0E94A70F182FBA
:1058B0008031B1F480E00E94F50A0E94A70F8111A7
:1058C0000FC041E050E0BE016F5F7F4F89E390E081
:1058D0000E94320E8981843019F41093A00222CFE5
:1058E00083E380937E0380E80E94F50A0E94BA0F4A
:1058F000882371F180E10E94F50A0E94A70F803190
:1059000039F582E10E94F50A0E94A70F823101F564
:1059100080E00E94F50A0E94A70F811119C084E05F
:105920008093A00215E5188741E050E0BE01685F52
:105930007F4F8BE190E00E94450A1F8341E050E0D9
:10594000BE01695F7F4F8AE190E00E94450AEACE7E
:1059500010927E0387E991E09A8389831B821C82DF
:105960001D821E8280E591E00E94090244E050E021
:10597000BE016D5F7F4F8FE090E00E94320E6FE7B7
:1059800073E0CE0101960E948C0D69E971E08FE70A
:1059900093E00E94D40C64EF71E080E090E00E94FC
:1059A000F9020E94232390E080E00E94723091E08F
:1059B000811101C090E09093490300E010E0BB2406
:1059C000B39493EFE92EFF24FA9425E0922ECC2491
:1059D000C394D12C0E94F501882309F452C0809110
:1059E000680490916904DC01ED91FC910084F185DB
:1059F000E02D09953C01181619060CF54091630439
:105A0000509164046091650470916604E091AF0464
:105A1000F091B0048091AD049091AE0409951A8282
:105A2000198250E040E0B301CE0101960E946E065B
:105A3000009709F090C21092BC041092BB044091F0
:105A40006304509164046091650470916604E09170
:105A5000AF04F091B0048091AD049091AE0409952B
:105A60008091940490919504A0919604B09197042C
:105A7000892B8A2B8B2B09F03AC21092BC0410920E
:105A8000BB040E94F501811104C0909206010E949E
:105A90002323809106018330A1F580915803882348
:105AA00081F180E10E944C02019771F480915703CB
:105AB00081110AC0B09257038EE491E00E94E30C7A
:105AC000809158038823E9F080E10E944C02892BE1
:105AD000C1F4809157038823A1F08091560381116E
